{
	"format": "sphinx-sol-ct-artifact-1",
	"merkleRoot": "0x85b22e702cdaf7ef670c7488270980058fdbbe8d76f5dc15311253f924037df8",
	"address": "0x47c011146a4498a70e0bf2e4585acf9cade85954",
	"sourceName": "src/Banny721TokenUriResolver.sol",
	"contractName": "Banny721TokenUriResolver",
	"chainId": "0xa",
	"abi": [
		{
			"inputs": [
				{
					"internalType": "string",
					"name": "bannyBody",
					"type": "string"
				},
				{
					"internalType": "string",
					"name": "defaultNecklace",
					"type": "string"
				},
				{
					"internalType": "string",
					"name": "defaultMouth",
					"type": "string"
				},
				{
					"internalType": "string",
					"name": "defaultStandardEyes",
					"type": "string"
				},
				{
					"internalType": "string",
					"name": "defaultAlienEyes",
					"type": "string"
				},
				{
					"internalType": "address",
					"name": "owner",
					"type": "address"
				},
				{
					"internalType": "address",
					"name": "trustedForwarder",
					"type": "address"
				}
			],
			"stateMutability": "nonpayable",
			"type": "constructor"
		},
		{
			"inputs": [],
			"name": "BANNY_BODY",
			"outputs": [
				{
					"internalType": "string",
					"name": "",
					"type": "string"
				}
			],
			"stateMutability": "view",
			"type": "function"
		},
		{
			"inputs": [],
			"name": "DEFAULT_ALIEN_EYES",
			"outputs": [
				{
					"internalType": "string",
					"name": "",
					"type": "string"
				}
			],
			"stateMutability": "view",
			"type": "function"
		},
		{
			"inputs": [],
			"name": "DEFAULT_MOUTH",
			"outputs": [
				{
					"internalType": "string",
					"name": "",
					"type": "string"
				}
			],
			"stateMutability": "view",
			"type": "function"
		},
		{
			"inputs": [],
			"name": "DEFAULT_NECKLACE",
			"outputs": [
				{
					"internalType": "string",
					"name": "",
					"type": "string"
				}
			],
			"stateMutability": "view",
			"type": "function"
		},
		{
			"inputs": [],
			"name": "DEFAULT_STANDARD_EYES",
			"outputs": [
				{
					"internalType": "string",
					"name": "",
					"type": "string"
				}
			],
			"stateMutability": "view",
			"type": "function"
		},
		{
			"inputs": [
				{
					"internalType": "address",
					"name": "hook",
					"type": "address"
				},
				{
					"internalType": "uint256",
					"name": "bannyBodyId",
					"type": "uint256"
				}
			],
			"name": "assetIdsOf",
			"outputs": [
				{
					"internalType": "uint256",
					"name": "backgroundId",
					"type": "uint256"
				},
				{
					"internalType": "uint256[]",
					"name": "outfitIds",
					"type": "uint256[]"
				}
			],
			"stateMutability": "view",
			"type": "function"
		},
		{
			"inputs": [
				{
					"internalType": "address",
					"name": "hook",
					"type": "address"
				},
				{
					"internalType": "uint256",
					"name": "bannyBodyId",
					"type": "uint256"
				},
				{
					"internalType": "uint256",
					"name": "backgroundId",
					"type": "uint256"
				},
				{
					"internalType": "uint256[]",
					"name": "outfitIds",
					"type": "uint256[]"
				}
			],
			"name": "decorateBannyWith",
			"outputs": [],
			"stateMutability": "nonpayable",
			"type": "function"
		},
		{
			"inputs": [
				{
					"internalType": "address",
					"name": "forwarder",
					"type": "address"
				}
			],
			"name": "isTrustedForwarder",
			"outputs": [
				{
					"internalType": "bool",
					"name": "",
					"type": "bool"
				}
			],
			"stateMutability": "view",
			"type": "function"
		},
		{
			"inputs": [
				{
					"internalType": "address",
					"name": "hook",
					"type": "address"
				},
				{
					"internalType": "uint256",
					"name": "bannyBodyId",
					"type": "uint256"
				}
			],
			"name": "lockOutfitChangesFor",
			"outputs": [],
			"stateMutability": "nonpayable",
			"type": "function"
		},
		{
			"inputs": [
				{
					"internalType": "address",
					"name": "hook",
					"type": "address"
				},
				{
					"internalType": "uint256",
					"name": "tokenId",
					"type": "uint256"
				}
			],
			"name": "namesOf",
			"outputs": [
				{
					"internalType": "string",
					"name": "",
					"type": "string"
				},
				{
					"internalType": "string",
					"name": "",
					"type": "string"
				},
				{
					"internalType": "string",
					"name": "",
					"type": "string"
				}
			],
			"stateMutability": "view",
			"type": "function"
		},
		{
			"inputs": [
				{
					"internalType": "address",
					"name": "operator",
					"type": "address"
				},
				{
					"internalType": "address",
					"name": "from",
					"type": "address"
				},
				{
					"internalType": "uint256",
					"name": "tokenId",
					"type": "uint256"
				},
				{
					"internalType": "bytes",
					"name": "data",
					"type": "bytes"
				}
			],
			"name": "onERC721Received",
			"outputs": [
				{
					"internalType": "bytes4",
					"name": "",
					"type": "bytes4"
				}
			],
			"stateMutability": "view",
			"type": "function"
		},
		{
			"inputs": [
				{
					"internalType": "address",
					"name": "hook",
					"type": "address"
				},
				{
					"internalType": "uint256",
					"name": "upc",
					"type": "uint256"
				}
			],
			"name": "outfitLockedUntil",
			"outputs": [
				{
					"internalType": "uint256",
					"name": "",
					"type": "uint256"
				}
			],
			"stateMutability": "view",
			"type": "function"
		},
		{
			"inputs": [],
			"name": "owner",
			"outputs": [
				{
					"internalType": "address",
					"name": "",
					"type": "address"
				}
			],
			"stateMutability": "view",
			"type": "function"
		},
		{
			"inputs": [],
			"name": "renounceOwnership",
			"outputs": [],
			"stateMutability": "nonpayable",
			"type": "function"
		},
		{
			"inputs": [
				{
					"internalType": "uint256[]",
					"name": "upcs",
					"type": "uint256[]"
				},
				{
					"internalType": "string[]",
					"name": "names",
					"type": "string[]"
				}
			],
			"name": "setProductNames",
			"outputs": [],
			"stateMutability": "nonpayable",
			"type": "function"
		},
		{
			"inputs": [
				{
					"internalType": "string",
					"name": "baseUri",
					"type": "string"
				}
			],
			"name": "setSvgBaseUri",
			"outputs": [],
			"stateMutability": "nonpayable",
			"type": "function"
		},
		{
			"inputs": [
				{
					"internalType": "uint256[]",
					"name": "upcs",
					"type": "uint256[]"
				},
				{
					"internalType": "string[]",
					"name": "svgContents",
					"type": "string[]"
				}
			],
			"name": "setSvgContentsOf",
			"outputs": [],
			"stateMutability": "nonpayable",
			"type": "function"
		},
		{
			"inputs": [
				{
					"internalType": "uint256[]",
					"name": "upcs",
					"type": "uint256[]"
				},
				{
					"internalType": "bytes32[]",
					"name": "svgHashs",
					"type": "bytes32[]"
				}
			],
			"name": "setSvgHashsOf",
			"outputs": [],
			"stateMutability": "nonpayable",
			"type": "function"
		},
		{
			"inputs": [],
			"name": "svgBaseUri",
			"outputs": [
				{
					"internalType": "string",
					"name": "",
					"type": "string"
				}
			],
			"stateMutability": "view",
			"type": "function"
		},
		{
			"inputs": [
				{
					"internalType": "uint256",
					"name": "upc",
					"type": "uint256"
				}
			],
			"name": "svgHashOf",
			"outputs": [
				{
					"internalType": "bytes32",
					"name": "",
					"type": "bytes32"
				}
			],
			"stateMutability": "view",
			"type": "function"
		},
		{
			"inputs": [
				{
					"internalType": "address",
					"name": "hook",
					"type": "address"
				},
				{
					"internalType": "uint256",
					"name": "tokenId",
					"type": "uint256"
				},
				{
					"internalType": "bool",
					"name": "shouldDressBannyBody",
					"type": "bool"
				},
				{
					"internalType": "bool",
					"name": "shouldIncludeBackgroundOnBannyBody",
					"type": "bool"
				}
			],
			"name": "svgOf",
			"outputs": [
				{
					"internalType": "string",
					"name": "",
					"type": "string"
				}
			],
			"stateMutability": "view",
			"type": "function"
		},
		{
			"inputs": [
				{
					"internalType": "address",
					"name": "hook",
					"type": "address"
				},
				{
					"internalType": "uint256",
					"name": "tokenId",
					"type": "uint256"
				}
			],
			"name": "tokenUriOf",
			"outputs": [
				{
					"internalType": "string",
					"name": "",
					"type": "string"
				}
			],
			"stateMutability": "view",
			"type": "function"
		},
		{
			"inputs": [
				{
					"internalType": "address",
					"name": "newOwner",
					"type": "address"
				}
			],
			"name": "transferOwnership",
			"outputs": [],
			"stateMutability": "nonpayable",
			"type": "function"
		},
		{
			"inputs": [],
			"name": "trustedForwarder",
			"outputs": [
				{
					"internalType": "address",
					"name": "",
					"type": "address"
				}
			],
			"stateMutability": "view",
			"type": "function"
		},
		{
			"inputs": [
				{
					"internalType": "address",
					"name": "hook",
					"type": "address"
				},
				{
					"internalType": "uint256",
					"name": "backgroundId",
					"type": "uint256"
				}
			],
			"name": "userOf",
			"outputs": [
				{
					"internalType": "uint256",
					"name": "",
					"type": "uint256"
				}
			],
			"stateMutability": "view",
			"type": "function"
		},
		{
			"inputs": [
				{
					"internalType": "address",
					"name": "hook",
					"type": "address"
				},
				{
					"internalType": "uint256",
					"name": "outfitId",
					"type": "uint256"
				}
			],
			"name": "wearerOf",
			"outputs": [
				{
					"internalType": "uint256",
					"name": "",
					"type": "uint256"
				}
			],
			"stateMutability": "view",
			"type": "function"
		},
		{
			"anonymous": false,
			"inputs": [
				{
					"indexed": true,
					"internalType": "address",
					"name": "hook",
					"type": "address"
				},
				{
					"indexed": true,
					"internalType": "uint256",
					"name": "bannyBodyId",
					"type": "uint256"
				},
				{
					"indexed": true,
					"internalType": "uint256",
					"name": "backgroundId",
					"type": "uint256"
				},
				{
					"indexed": false,
					"internalType": "uint256[]",
					"name": "outfitIds",
					"type": "uint256[]"
				},
				{
					"indexed": false,
					"internalType": "address",
					"name": "caller",
					"type": "address"
				}
			],
			"name": "DecorateBanny",
			"type": "event"
		},
		{
			"anonymous": false,
			"inputs": [
				{
					"indexed": true,
					"internalType": "address",
					"name": "previousOwner",
					"type": "address"
				},
				{
					"indexed": true,
					"internalType": "address",
					"name": "newOwner",
					"type": "address"
				}
			],
			"name": "OwnershipTransferred",
			"type": "event"
		},
		{
			"anonymous": false,
			"inputs": [
				{
					"indexed": true,
					"internalType": "uint256",
					"name": "upc",
					"type": "uint256"
				},
				{
					"indexed": false,
					"internalType": "string",
					"name": "name",
					"type": "string"
				},
				{
					"indexed": false,
					"internalType": "address",
					"name": "caller",
					"type": "address"
				}
			],
			"name": "SetProductName",
			"type": "event"
		},
		{
			"anonymous": false,
			"inputs": [
				{
					"indexed": false,
					"internalType": "string",
					"name": "baseUri",
					"type": "string"
				},
				{
					"indexed": false,
					"internalType": "address",
					"name": "caller",
					"type": "address"
				}
			],
			"name": "SetSvgBaseUri",
			"type": "event"
		},
		{
			"anonymous": false,
			"inputs": [
				{
					"indexed": true,
					"internalType": "uint256",
					"name": "upc",
					"type": "uint256"
				},
				{
					"indexed": false,
					"internalType": "string",
					"name": "svgContent",
					"type": "string"
				},
				{
					"indexed": false,
					"internalType": "address",
					"name": "caller",
					"type": "address"
				}
			],
			"name": "SetSvgContent",
			"type": "event"
		},
		{
			"anonymous": false,
			"inputs": [
				{
					"indexed": true,
					"internalType": "uint256",
					"name": "upc",
					"type": "uint256"
				},
				{
					"indexed": true,
					"internalType": "bytes32",
					"name": "svgHash",
					"type": "bytes32"
				},
				{
					"indexed": false,
					"internalType": "address",
					"name": "caller",
					"type": "address"
				}
			],
			"name": "SetSvgHash",
			"type": "event"
		},
		{
			"inputs": [],
			"name": "Banny721TokenUriResolver_CantAccelerateTheLock",
			"type": "error"
		},
		{
			"inputs": [],
			"name": "Banny721TokenUriResolver_ContentsAlreadyStored",
			"type": "error"
		},
		{
			"inputs": [],
			"name": "Banny721TokenUriResolver_ContentsMismatch",
			"type": "error"
		},
		{
			"inputs": [],
			"name": "Banny721TokenUriResolver_HashAlreadyStored",
			"type": "error"
		},
		{
			"inputs": [],
			"name": "Banny721TokenUriResolver_HashNotFound",
			"type": "error"
		},
		{
			"inputs": [],
			"name": "Banny721TokenUriResolver_HeadAlreadyAdded",
			"type": "error"
		},
		{
			"inputs": [],
			"name": "Banny721TokenUriResolver_OutfitChangesLocked",
			"type": "error"
		},
		{
			"inputs": [],
			"name": "Banny721TokenUriResolver_SuitAlreadyAdded",
			"type": "error"
		},
		{
			"inputs": [],
			"name": "Banny721TokenUriResolver_UnauthorizedBackground",
			"type": "error"
		},
		{
			"inputs": [],
			"name": "Banny721TokenUriResolver_UnauthorizedBannyBody",
			"type": "error"
		},
		{
			"inputs": [],
			"name": "Banny721TokenUriResolver_UnauthorizedOutfit",
			"type": "error"
		},
		{
			"inputs": [],
			"name": "Banny721TokenUriResolver_UnauthorizedTransfer",
			"type": "error"
		},
		{
			"inputs": [],
			"name": "Banny721TokenUriResolver_UnorderedCategories",
			"type": "error"
		},
		{
			"inputs": [],
			"name": "Banny721TokenUriResolver_UnrecognizedBackground",
			"type": "error"
		},
		{
			"inputs": [],
			"name": "Banny721TokenUriResolver_UnrecognizedCategory",
			"type": "error"
		},
		{
			"inputs": [],
			"name": "Banny721TokenUriResolver_UnrecognizedProduct",
			"type": "error"
		},
		{
			"inputs": [
				{
					"internalType": "address",
					"name": "owner",
					"type": "address"
				}
			],
			"name": "OwnableInvalidOwner",
			"type": "error"
		},
		{
			"inputs": [
				{
					"internalType": "address",
					"name": "account",
					"type": "address"
				}
			],
			"name": "OwnableUnauthorizedAccount",
			"type": "error"
		},
		{
			"inputs": [],
			"name": "ReentrancyGuardReentrantCall",
			"type": "error"
		}
	],
	"args": [],
	"solcInputHash": "4d4e144dd4f9b678cbfd03cbd2bcd5d7",
	"bytecode": "0x60a060405234620007685762006340803803806200001d816200076c565b928339810160e082820312620007685781516001600160401b03908181116200076857826200004e91850162000792565b602093848101518381116200076857846200006b91830162000792565b9360408201518481116200076857816200008791840162000792565b6060830151858111620007685782620000a291850162000792565b916080840151908682116200076857620000be91850162000792565b92620000db60c0620000d360a0840162000802565b920162000802565b906001600160a01b0390811690811562000750575f548260018060a01b03198216175f55167f8be0079c531659141344cd1fd0a4f28419497f9722a3daafe3b4186f6b6457e05f80a36080526001958680558451868111620003f657600954958887811c9716801562000745575b8a881014620003d7578190601f97888111620006f1575b508a9088831160011462000689575f926200067d575b50505f19600383901b1c191690881b176009555b805190868211620003f657600754908882811c9216801562000672575b8a831014620003d75781878493116200061e575b508990878311600114620005b8575f92620005ac575b50505f19600383901b1c191690871b176007555b805190858211620003f657600654908782811c92168015620005a1575b89831014620003d75781868493116200054d575b508890868311600114620004e7575f92620004db575b50505f19600383901b1c191690861b176006555b805190848211620003f657600854908682811c92168015620004d0575b88831014620003d75781858493116200047c575b50879085831160011462000416575f926200040a575b50505f19600383901b1c191690851b176008555b8051928311620003f65760059485548581811c91168015620003eb575b82821014620003d75783811162000391575b50809284116001146200032a57509282939183925f946200031e575b50501b915f199060031b1c19161790555b604051615b289081620008188239608051818181610ad601528181610cae01526158c80152f35b015192505f80620002e6565b919083601f198116875f52845f20945f905b888383106200037657505050106200035d575b505050811b019055620002f7565b01515f1960f88460031b161c191690555f80806200034f565b8587015188559096019594850194879350908101906200033c565b865f52815f2084808701891c820192848810620003cd575b01881c019086905b828110620003c1575050620002ca565b5f8155018690620003b1565b92508192620003a9565b634e487b7160e01b5f52602260045260245ffd5b90607f1690620002b8565b634e487b7160e01b5f52604160045260245ffd5b015190505f8062000287565b90879350601f1983169160085f52895f20925f5b8b8282106200046557505084116200044c575b505050811b016008556200029b565b01515f1960f88460031b161c191690555f80806200043d565b8385015186558b979095019493840193016200042a565b90915060085f52875f208580850160051c8201928a8610620004c6575b918991869594930160051c01915b828110620004b757505062000271565b5f8155859450899101620004a7565b9250819262000499565b91607f16916200025d565b015190505f806200022c565b90889350601f1983169160065f528a5f20925f5b8c8282106200053657505084116200051d575b505050811b0160065562000240565b01515f1960f88460031b161c191690555f80806200050e565b8385015186558c97909501949384019301620004fb565b90915060065f52885f208680850160051c8201928b861062000597575b918a91869594930160051c01915b8281106200058857505062000216565b5f81558594508a910162000578565b925081926200056a565b91607f169162000202565b015190505f80620001d1565b90899350601f1983169160075f528b5f20925f5b8d828210620006075750508411620005ee575b505050811b01600755620001e5565b01515f1960f88460031b161c191690555f8080620005df565b8385015186558d97909501949384019301620005cc565b90915060075f52895f208780850160051c8201928c861062000668575b918b91869594930160051c01915b82811062000659575050620001bb565b5f81558594508b910162000649565b925081926200063b565b91607f1691620001a7565b015190505f8062000176565b908a9350601f1983169160095f528c5f20928d5f905b828210620006d95750508411620006c0575b505050811b016009556200018a565b01515f1960f88460031b161c191690555f8080620006b1565b8385015186558e979095019493840193018e6200069f565b90915060095f528a5f208880850160051c8201928d86106200073b575b918c91869594930160051c01915b8281106200072c57505062000160565b5f81558594508c91016200071c565b925081926200070e565b96607f169662000149565b604051631e4fbdf760e01b81525f6004820152602490fd5b5f80fd5b6040519190601f01601f191682016001600160401b03811183821017620003f657604052565b919080601f84011215620007685782516001600160401b038111620003f657602090620007c8601f8201601f191683016200076c565b9281845282828701011162000768575f5b818110620007ee5750825f9394955001015290565b8581018301518482018401528201620007d9565b51906001600160a01b0382168203620007685756fe60806040526004361015610011575f80fd5b5f3560e01c806257bfdd146101b357806305b2ae1b146101ae578063150b7a02146101a9578063187be308146101a457806318ab522d1461019f5780632150a1381461019a5780632580833d1461019557806331a290ac14610190578063572b6c051461018b57806359a81d91146101865780635e703e71146101815780636aff31dd1461017c578063715018a61461017757806379a2696e146101725780637da0a8771461016d578063875e4bea146101685780638da5cb5b14610163578063a0122c091461015e578063a22d0dd514610159578063b03a3eab14610154578063b1fa9e7b1461014f578063b3fa27831461014a578063c06e7bc714610145578063c122804614610140578063d756227e1461013b5763f2fde38b14610136575f80fd5b611371565b6112a1565b611207565b6110b9565b611014565b610fe9565b610f45565b610f00565b610e64565b610e3f565b610cd2565b610c8f565b610c5c565b610bf8565b610bce565b610ba2565b610afd565b610aa7565b61093f565b6107db565b610736565b6106bf565b610629565b6105ab565b610490565b610459565b90600182811c921680156101e6575b60208310146101d257565b634e487b7160e01b5f52602260045260245ffd5b91607f16916101c7565b634e487b7160e01b5f52604160045260245ffd5b6101e0810190811067ffffffffffffffff82111761022157604052565b6101f0565b6020810190811067ffffffffffffffff82111761022157604052565b6040810190811067ffffffffffffffff82111761022157604052565b6060810190811067ffffffffffffffff82111761022157604052565b90601f8019910116810190811067ffffffffffffffff82111761022157604052565b604051905f82600354916102af836101b8565b8083529260209060019081811690811561033b57506001146102dc575b50506102da9250038361027a565b565b91509260035f527fc2575a0e9e593c00f959f8c92f12db2869c3395a3b0502d05e2516446f71f85b935f925b82841061032357506102da9450505081016020015f806102cc565b85548885018301529485019487945092810192610308565b915050602092506102da94915060ff191682840152151560051b8201015f806102cc565b9060405191825f8254610371816101b8565b908184526020946001916001811690815f146103dd575060011461039f575b5050506102da9250038361027a565b5f90815285812095935091905b8183106103c55750506102da93508201015f8080610390565b855488840185015294850194879450918301916103ac565b925050506102da94925060ff191682840152151560051b8201015f8080610390565b5f5b8381106104105750505f910152565b8181015183820152602001610401565b90602091610439815180928185528580860191016103ff565b601f01601f1916010190565b906020610456928181520190610420565b90565b3461048c575f36600319011261048c5761048861047461029c565b604051918291602083526020830190610420565b0390f35b5f80fd5b3461048c575f36600319011261048c576040515f6008546104b0816101b8565b8084529060209060019081811690811561054257506001146104e9575b610488856104dd8187038261027a565b60405191829182610445565b60085f90815293507ff3f7a9fe364faab93b216da50a3214154f22a0a2b415b23a84c8169e8b636ee35b83851061052f575050505081016020016104dd826104886104cd565b8054868601840152938201938101610513565b869550610488969350602092506104dd94915060ff191682840152151560051b82010192936104cd565b6001600160a01b0381160361048c57565b9181601f8401121561048c5782359167ffffffffffffffff831161048c576020838186019501011161048c57565b3461048c57608036600319011261048c576004356105c88161056c565b6105d360243561056c565b60643567ffffffffffffffff811161048c576105f390369060040161057d565b50506001600160a01b033091160361061757604051630a85bd0160e11b8152602090f35b604051633b2c6aa160e21b8152600490fd5b3461048c57604036600319011261048c576004356106468161056c565b6001600160a01b036024359161065c8382612f6d565b16805f52600260205260405f20825f5260205260405f20549162093a804201928342116106ba5783106106a8576106a5915f52600260205260405f20905f5260205260405f2090565b55005b604051631057c89560e21b8152600490fd5b611405565b3461048c57604036600319011261048c576106e86004356106df8161056c565b60243590611518565b90604051918291604083019083526020906040602085015282518091526020606085019301915f5b82811061071f57505050500390f35b835185528695509381019392810192600101610710565b3461048c575f36600319011261048c576040515f600554610756816101b8565b80845290602090600190818116908115610542575060011461078257610488856104dd8187038261027a565b60055f90815293507f036b6384b5eca791c62761152d0c79bb0604c104a5fb6f4eb0703f3154bb3db05b8385106107c8575050505081016020016104dd826104886104cd565b80548686018401529382019381016107ac565b3461048c575f36600319011261048c576040515f6006546107fb816101b8565b80845290602090600190818116908115610542575060011461082757610488856104dd8187038261027a565b60065f90815293507ff652222313e28459528d920b65115c16c04f3efc82aaedc97be59f3f377c0d3f5b83851061086d575050505081016020016104dd826104886104cd565b8054868601840152938201938101610851565b604051906102da82610204565b67ffffffffffffffff81116102215760051b60200190565b92916108b08261088d565b916108be604051938461027a565b829481845260208094019160051b810192831161048c57905b8282106108e45750505050565b813581529083019083016108d7565b9080601f8301121561048c57816020610456933591016108a5565b9181601f8401121561048c5782359167ffffffffffffffff831161048c576020808501948460051b01011161048c57565b3461048c5760408060031936011261048c5760049067ffffffffffffffff823581811161048c5761097390369085016108f3565b9060243590811161048c5761098b903690850161090e565b9290915f5b8151811015610aa5576109a381836114f6565b516109b96109b28388886115e2565b369161126b565b6109d36109ce835f52600d60205260405f2090565b611624565b610a95576109e9825f52600460205260405f2090565b548015610a855785516020810190610a1381610a05848761162e565b03601f19810183528261027a565b51902003610a7557907faeb631726b45aa3f6b09da79f7af03a9784614901f61a967ed84d63c37b7edc7610a6c83610a5f60019695610a5a865f52600d60205260405f2090565b6116f3565b87519182913390836117c3565b0390a201610990565b845163d8e55daf60e01b81528890fd5b85516338d87d3960e01b81528990fd5b845163444244f560e01b81528890fd5b005b3461048c57602036600319011261048c576020600435610ac68161056c565b6001600160a01b039060405191807f0000000000000000000000000000000000000000000000000000000000000000169116148152f35b3461048c575f36600319011261048c576040515f600954610b1d816101b8565b808452906020906001908181169081156105425750600114610b4957610488856104dd8187038261027a565b60095f90815293507f6e1540171b6c0c960b71a7020d9f60077f6af931a8bbf590da0223dacf75c7af5b838510610b8f575050505081016020016104dd826104886104cd565b8054868601840152938201938101610b73565b3461048c57604036600319011261048c57610488610474600435610bc58161056c565b6024359061209c565b3461048c57602036600319011261048c576004355f526004602052602060405f2054604051908152f35b3461048c575f36600319011261048c57610c1061440a565b5f6001600160a01b03815473ffffffffffffffffffffffffffffffffffffffff1981168355167f8be0079c531659141344cd1fd0a4f28419497f9722a3daafe3b4186f6b6457e08280a3005b3461048c57604036600319011261048c576020610c87600435610c7e8161056c565b60243590612a0e565b604051908152f35b3461048c575f36600319011261048c5760206040516001600160a01b037f0000000000000000000000000000000000000000000000000000000000000000168152f35b3461048c5760208060031936011261048c5767ffffffffffffffff60043581811161048c57610d0590369060040161057d565b9091610d0f61440a565b811161022157610d2981610d246003546101b8565b61165b565b5f92601f8211600114610d9d5750610d7881807f512c3c91736f50c57a0548c1d01ab02f24c420f002b8b20e2bfe63df9693cd3f955f91610d92575b508160011b915f199060031b1c19161790565b6003555b610d8d604051928392339184612a69565b0390a1005b90508401355f610d65565b60035f52601f198216937fc2575a0e9e593c00f959f8c92f12db2869c3395a3b0502d05e2516446f71f85b915f905b868210610e27575050827f512c3c91736f50c57a0548c1d01ab02f24c420f002b8b20e2bfe63df9693cd3f9510610e0e575b5050600181811b01600355610d7c565b8301355f19600384901b60f8161c191690555f80610dfe565b80600184958294958901358155019401920190610dcc565b3461048c575f36600319011261048c5760206001600160a01b035f5416604051908152f35b3461048c57604036600319011261048c57610eda600435610e848161056c565b610488610e9e610e97602435809461319a565b809361414e565b91610ee8610ec563ffffffff610ebd62ffffff61010086015116613770565b93511661395f565b91604051958695606087526060870190610420565b908582036020870152610420565b908382036040850152610420565b8015150361048c57565b3461048c57608036600319011261048c57610488610474600435610f238161056c565b604435610f2f81610ef6565b60643591610f3c83610ef6565b60243590612bb6565b3461048c57604036600319011261048c5767ffffffffffffffff60043581811161048c57610f779036906004016108f3565b9060243590811161048c573660238201121561048c578060040135610f9b8161088d565b91610fa9604051938461027a565b8183526020916024602085019160051b8301019136831161048c57602401905b828210610fda57610aa58587612cb8565b81358152908301908301610fc9565b3461048c57604036600319011261048c576020610c8760043561100b8161056c565b60243590612d4f565b3461048c575f36600319011261048c576040515f600754611034816101b8565b80845290602090600190818116908115610542575060011461106057610488856104dd8187038261027a565b60075f90815293507fa66cc928b5edb82af9bd49922954155ab7b0942694bea4ce44661d9a8736c6885b8385106110a6575050505081016020016104dd826104886104cd565b805486860184015293820193810161108a565b3461048c57608036600319011261048c576004356110d68161056c565b6044359060243560643567ffffffffffffffff811161048c576110fd90369060040161090e565b906002600154146111f55760026001556111178385612f6d565b6001600160a01b039182851692835f526002602052604096875f20865f52602052875f205442106111e45761114a6158be565b97838151918083528201527f07ffffffffffffffffffffffffffffffffffffffffffffffffffffffffffffff841161048c57866111d5967f6a68946ba06488db8585d7c7637fa954b574035fe15720ea760125ef8601725883606086958a6111db9f996111ce9a8c60051b8093868601371660208301528101030190a48587614b16565b36916108a5565b91614dc9565b610aa560018055565b8751632d2f65a360e11b8152600490fd5b604051633ee5aeb560e01b8152600490fd5b3461048c57604036600319011261048c576001600160a01b0360043561122c8161056c565b165f52600260205260405f206024355f52602052602060405f2054604051908152f35b67ffffffffffffffff811161022157601f01601f191660200190565b9291926112778261124f565b91611285604051938461027a565b82948184528183011161048c578281602093845f960137010152565b3461048c57604036600319011261048c5767ffffffffffffffff60043581811161048c576112d39036906004016108f3565b60249060243583811161048c573660238201121561048c578060040135926112fa8461088d565b93611308604051958661027a565b8085526020956024602087019260051b8501019336851161048c5760248101925b85841061133a57610aa58888612dde565b833583811161048c5782013660438201121561048c5789916113668392369060448a820135910161126b565b815201930192611329565b3461048c57602036600319011261048c5760043561138e8161056c565b61139661440a565b6001600160a01b038091169081156113ed575f548273ffffffffffffffffffffffffffffffffffffffff198216175f55167f8be0079c531659141344cd1fd0a4f28419497f9722a3daafe3b4186f6b6457e05f80a3005b604051631e4fbdf760e01b81525f6004820152602490fd5b634e487b7160e01b5f52601160045260245ffd5b90600282018092116106ba57565b90602082018092116106ba57565b90600182018092116106ba57565b919082018092116106ba57565b90604051918281549182825260209260208301915f5260205f20935f905b828210611484575050506102da9250038361027a565b85548452600195860195889550938101939091019061146e565b906114a88261088d565b6114b5604051918261027a565b82815280926114c6601f199161088d565b0190602036910137565b634e487b7160e01b5f52603260045260245ffd5b8051156114f15760200190565b6114d0565b80518210156114f15760209160051b010190565b5f1981146106ba5760010190565b9190915f926001600160a01b0382165f52600a60205260405f20815f5260205261154460405f20611450565b9361154f855161149e565b915f915f5b875181101561159d578061156a6001928a6114f6565b5184611576828a612d4f565b14611583575b5001611554565b61159661158f8761150a565b96886114f6565b525f61157c565b5095509050929190926115c1826001600160a01b03165f52600b60205260405f2090565b815f526020526115d660405f20548093612a0e565b146115de5750565b9250565b91908110156114f15760051b81013590601e198136030182121561048c57019081359167ffffffffffffffff831161048c57602001823603811361048c579190565b61045690546101b8565b90611641602092828151948592016103ff565b0190565b818110611650575050565b5f8155600101611645565b90601f8211611668575050565b6102da9160035f527fc2575a0e9e593c00f959f8c92f12db2869c3395a3b0502d05e2516446f71f85b906020601f840160051c830193106116b1575b601f0160051c0190611645565b90915081906116a4565b9190601f81116116ca57505050565b6102da925f5260205f20906020601f840160051c830193106116b157601f0160051c0190611645565b919091825167ffffffffffffffff81116102215761171b8161171584546101b8565b846116bb565b602080601f831160011461175c5750819061174d9394955f92611751575b50508160011b915f199060031b1c19161790565b9055565b015190505f80611739565b90601f19831695611770855f5260205f2090565b925f905b8882106117ab57505083600195969710611793575b505050811b019055565b01515f1960f88460031b161c191690555f8080611789565b80600185968294968601518155019501930190611774565b906001600160a01b036117e3602092959495604085526040850190610420565b9416910152565b604051906117f782610226565b5f8252565b6040519061180982610242565b600f82527f2261747472696275746573223a205b00000000000000000000000000000000006020830152565b6040519061184282610242565b600e82527f226f7574666974496473223a205b0000000000000000000000000000000000006020830152565b9060405191826060515f5b8181106118ad57509060206102da936118a182948401918383015f81528151948592016103ff565b0103808552018361027a565b6020919250806080015182828801015201908491611879565b60206102da9193929360405194816118e787935180928680870191016103ff565b82016118a1825180938680850191016103ff565b5f198101919082116106ba57565b906102da6021604051846119278296518092602080860191016103ff565b8101600b60fa1b602082015203600181018552018361027a565b906102da60226040518461195f8296518092602080860191016103ff565b810161174b60f21b602082015203600281018552018361027a565b6040906102da92949394825195869160209361199e815180928780880191016103ff565b83017f7b2274726169745f74797065223a202200000000000000000000000000000000858201526119d882518093876030850191016103ff565b016c111610113b30b63ab2911d101160991b6030820152611a028251809386603d850191016103ff565b0162089f4b60ea1b603d820152039081018552018361027a565b906102da604a60405184611a3a8296518092602080860191016103ff565b81017f7b2274726169745f74797065223a20224261636b67726f756e64222c2022766160208201527f6c7565223a2022227d2c00000000000000000000000000000000000000000000604082015203602a81018552018361027a565b60316102da919392936040519481611ab88793518092602080870191016103ff565b82017f226261636b67726f756e644964223a20000000000000000000000000000000006020820152611af48251809360206030850191016103ff565b01600b60fa1b603082015203601181018552018361027a565b604a6102da919392936040519481611b2f8793518092602080870191016103ff565b82017f7b2274726169745f74797065223a20224261636b67726f756e64222c2022766160208201527f6c7565223a2022000000000000000000000000000000000000000000000000006040820152611b918251809360206047850191016103ff565b0162089f4b60ea1b604782015203602a81018552018361027a565b60376102da919392936040519481611bce8793518092602080870191016103ff565b82017f226368616e6765734c6f636b6564556e74696c223a20000000000000000000006020820152611c0a8251809360206036850191016103ff565b01600b60fa1b603682015203601781018552018361027a565b60526102da919392936040519481611c458793518092602080870191016103ff565b82017f7b2274726169745f74797065223a20224368616e676573206c6f636b6564207560208201527f6e74696c222c202276616c7565223a20000000000000000000000000000000006040820152611ca78251809360206050850191016103ff565b01611f4b60f21b605082015203603281018552018361027a565b906102da603660405180947f22776f726e427942616e6e79426f64794964223a2000000000000000000000006020830152611d068151809260206035860191016103ff565b8101600b60fa1b603582015203601681018552018361027a565b604b6102da919392936040519481611d428793518092602080870191016103ff565b82017f7b2274726169745f74797065223a2022576f726e2062792042616e6e79222c206020820152680113b30b63ab2911d160bd1b6040820152611d908251809360206049850191016103ff565b01611f4b60f21b604982015203602b81018552018361027a565b906102da603660405180947f2275736564427942616e6e79426f64794964223a2000000000000000000000006020830152611d068151809260206035860191016103ff565b604b6102da919392936040519481611e118793518092602080870191016103ff565b82017f7b2274726169745f74797065223a2022557365642062792042616e6e79222c206020820152680113b30b63ab2911d160bd1b6040820152611d908251809360206049850191016103ff565b81601f8201121561048c578051611e758161124f565b92611e83604051948561027a565b8184526020828401011161048c5761045691602080850191016103ff565b9060208282031261048c57815167ffffffffffffffff811161048c576104569201611e5f565b6040513d5f823e3d90fd5b9081602091031261048c575190565b9081606091031261048c57805191604060208301519201516104568161056c565b612030600392959460a46102da956040519885611f298b975180926020808b0191016103ff565b86017f7b2274726169745f74797065223a202250726f64756374206e616d65222c202260208201527f76616c7565223a202200000000000000000000000000000000000000000000006040820152611f8b8251809360206049850191016103ff565b017f227d2c207b2274726169745f74797065223a202243617465676f7279206e616d60498201527f65222c202276616c7565223a20220000000000000000000000000000000000006069820152611fec8251809360206077850191016103ff565b017f227d2c207b2274726169745f74797065223a2022546f74616c20737570706c7960778201526c111610113b30b63ab2911d101160991b6097820152019061162e565b62227d5d60e81b815203601c1981018552018361027a565b906102da603d60405180947f646174613a6170706c69636174696f6e2f6a736f6e3b6261736536342c000000602083015261208c81518092602086860191016103ff565b810103601d81018552018361027a565b6120a6828261319a565b9163ffffffff6120ba845163ffffffff1690565b1615612a03576120c86117ea565b506120d16117fc565b610100928385019462ffffff94856120ec885162ffffff1690565b16156128345750612116612110612107835163ffffffff1690565b63ffffffff1690565b836139b6565b9182516127f8575b60018661212e895162ffffff1690565b16036127ca576121626121418683612a0e565b9461215c612156612151886132bc565b611daa565b966132bc565b90611def565b955b8351156126a857509060606001600160a01b0394939260046040518097819363043c358d60e11b8352165afa9384156126a3575f905f9561266e575b5081516121b29063ffffffff1661395f565b9688516121c19062ffffff1690565b62ffffff166121cf90613770565b97606084019889516121e49063ffffffff1690565b63ffffffff166121f3906132bc565b916121fd93611f02565b94612208838861414e565b9783516122189063ffffffff1690565b63ffffffff166122279061395f565b9980516122369062ffffff1690565b62ffffff1661224490613770565b9861224e906132bc565b91855161225e9063ffffffff1690565b63ffffffff1661226d906132bc565b915161227d9062ffffff166132bc565b905161228e9063ffffffff166132bc565b9160408701516122a19063ffffffff1690565b63ffffffff166122b0906132bc565b9360208801516122cc906cffffffffffffffffffffffffff1690565b6cffffffffffffffffffffffffff166122e4906132bc565b956122ee906132bc565b966122f8906132bc565b610120989098015161230c9060ff166132bc565b9860405180916020820161231f9161162e565b03601f1981018252612331908261027a565b61233a90614322565b9b6040519e8f9e8f602001612373906009907f7b226e616d65223a22000000000000000000000000000000000000000000000081520190565b61237c9161162e565b7f222c202270726f647563744e616d65223a20220000000000000000000000000081526013016123ab9161162e565b7f222c202263617465676f72794e616d65223a202200000000000000000000000081526014016123da9161162e565b7f222c2022746f6b656e4964223a200000000000000000000000000000000000008152600e016124099161162e565b7f2c2022757063223a20000000000000000000000000000000000000000000000081526009016124389161162e565b7f2c202263617465676f7279223a200000000000000000000000000000000000008152600e016124679161162e565b7f2c2022737570706c79223a2000000000000000000000000000000000000000008152600c016124969161162e565b7f2c202272656d61696e696e67223a2000000000000000000000000000000000008152600f016124c59161162e565b7f2c20227072696365223a200000000000000000000000000000000000000000008152600b016124f49161162e565b7f2c2022646563696d616c73223a200000000000000000000000000000000000008152600e016125239161162e565b7f2c202263757272656e6379223a200000000000000000000000000000000000008152600e016125529161162e565b7f2c2022646973636f756e74223a200000000000000000000000000000000000008152600e016125819161162e565b61016160f51b81526002016125959161162e565b61259e9161162e565b7f2c20226465736372697074696f6e223a2241207069656365206f662042616e6e81527f792052657461696c2e222c2265787465726e616c5f75726c223a22687474707360208201527f3a2f2f72657461696c2e62616e6e792e6574682e7375636b73222c22696d616760408201527f65223a22646174613a696d6167652f7376672b786d6c3b6261736536342c00006060820152607e0161263f9161162e565b61227d60f01b815260020103601f198101825261265c908261027a565b61266590614322565b61045690612048565b905061269391945060603d60601161269c575b61268b818361027a565b810190611ee1565b5093905f6121a0565b503d612681565b611ec7565b9350945050506126be601192945162ffffff1690565b1611156127b657604051636c0360eb60e01b81525f816004816001600160a01b0386165afa9283156126a357612747936020925f91612794575b50925b61271361270782613dbf565b6001600160a01b031690565b604051630c8df17160e41b81526001600160a01b039092166004830152602482019290925293849190829081906044820190565b03915afa9081156126a357610456925f92612763575b50613e26565b61278691925060203d60201161278d575b61277e818361027a565b810190611ed2565b905f61275d565b503d612774565b6127b091503d805f833e6127a8818361027a565b810190611ea1565b5f6126f8565b6020612747926127c461029c565b926126fb565b6127f26127d78683612d4f565b946127ec6121566127e7886132bc565b611cc1565b90611d20565b95612164565b916128189060018761280d8a5162ffffff1690565b160361281e57613cac565b9161211e565b61282f9061282a613b6d565b6118c6565b613cac565b91909293966128438883612aa2565b9661284e8984611518565b979099612859611835565b9a5f9b5b8a518d10156128b2576128839061287d6128778f8e6114f6565b516132bc565b906118c6565b9b61288e8b516118fb565b811061289e575b6001019b61285d565b9b6128aa600191611909565b9c9050612895565b6128c7919395979a989b929496999c50611941565b995f9b5b88518d101561293c576129346001918c8f6129296121078f8f61291161290561291e936128fe61292e98612919956114f6565b519061319a565b9687015162ffffff1690565b62ffffff1690565b613770565b935163ffffffff1690565b61395f565b9161197a565b9c019b6128cb565b939894995094999196509499508515155f146129f2579061298661292961210761297c61297561298c9661296f8c6132bc565b90611a96565b998761319a565b5163ffffffff1690565b90611b0d565b955b6129ba866129ad846001600160a01b03165f52600260205260405f2090565b905f5260205260405f2090565b544281116129c9575b50612164565b94966129e56121566129eb93996129df896132bc565b90611bac565b90611c23565b955f6129c3565b94506129fd90611a1c565b9561298e565b5050506104566117ea565b6001600160a01b0316805f52600e60205260405f20825f5260205260405f2054918215918215612a47575b5050612a425790565b505f90565b9091505f52600b60205260405f20825f5260205260405f205414155f80612a39565b916060816001600160a01b039260209497969760408752816040880152838701375f828287010152601f80199101168401019416910152565b612aac828261319a565b9163ffffffff612ac0845163ffffffff1690565b1615612a035760609062ffffff612ade61010086015162ffffff1690565b16612b825792612b22612b2892612af86104569686611518565b939080151580612b7a575b612b44575b50612b1d61210761287d925163ffffffff1690565b614449565b92614910565b8051612b35575b50613cac565b612b3e916118c6565b5f612b2f565b61287d919250612107612b71612b6c612b6661210761297c612b1d968d61319a565b8a6139b6565b61186e565b93925050612b08565b506001612b03565b5050612b98612107612b9e935163ffffffff1690565b906139b6565b8051612bad57506104566117ea565b61045690613cac565b9092612bc2848361319a565b9363ffffffff612bd6865163ffffffff1690565b1615612cab5760609062ffffff612bf461010088015162ffffff1690565b16612c92579061045695612c0b612c309386611518565b948115159081612c8a575b50612c625750612b1d61210761287d925163ffffffff1690565b92612c3d575b5050613cac565b612c4691614910565b8051612c53575b80612c36565b612c5c916118c6565b5f612c4d565b61287d919250612107612b71612b6c612c8461210761297c612b1d968c61319a565b896139b6565b90505f612c16565b5050509050612b98612107612b9e935163ffffffff1690565b50505050506104566117ea565b91612cc161440a565b5f925b8051841015612d4957612cd784826114f6565b5193612ce381856114f6565b51855f5260049560208781526040805f2054612d3a57907fb10eb6fc7557a7109693cb8f3fac48d44328de56c0368ee4cac539b424d2cad991600196979899845f52825284815f205551338152a301929190612cc4565b51632165e0ab60e01b81528890fd5b50915050565b6001600160a01b0381165f52600f60205260405f20825f5260205260405f2054908115612dd757612d91906001600160a01b03165f52600a60205260405f2090565b815f52602052612da360405f20611450565b915f5b8351811015612dcf5781612dba82866114f6565b5114612dc857600101612da6565b5050905090565b505050505f90565b5050505f90565b91612de761440a565b5f925b8051841015612d4957612dfd84826114f6565b5193612e0981856114f6565b5194805f52602095600c87526040805f20825167ffffffffffffffff811161022157612e398161171584546101b8565b89601f8211600114612eb75750917f9dedd219289ed514faff576c477c66bd097aef59a236e3b8ebcf0d0070cb4e969391612e9184612ea09560019a9b9c9d5f91612eac57508160011b915f199060031b1c19161790565b90555b519182913390836117c3565b0390a201929190612dea565b90508501515f610d65565b99601f198216612eca845f5260205f2090565b9b5f905b828210612f3357505091600198999a9b7f9dedd219289ed514faff576c477c66bd097aef59a236e3b8ebcf0d0070cb4e9696949282612ea0979510612f1b575b5050881b88019055612e94565b8501515f1960f88460031b161c191690555f80612f0e565b80600181939f868b015181550194019d01909c929c612ece565b51906102da8261056c565b9081602091031261048c57516104568161056c565b6040516331a9108f60e11b815260048101929092526001600160a01b03906020908390602490829085165afa9182156126a3575f92612fcd575b5080612fb16158be565b16911603612fbb57565b6040516341eb334360e11b8152600490fd5b612ff091925060203d602011612ff7575b612fe8818361027a565b810190612f58565b905f612fa7565b503d612fde565b519063ffffffff8216820361048c57565b51906cffffffffffffffffffffffffff8216820361048c57565b519061ffff8216820361048c57565b519062ffffff8216820361048c57565b519060ff8216820361048c57565b51906102da82610ef6565b60208183031261048c57805167ffffffffffffffff9182821161048c57016101e08184031261048c57613092610880565b9261309c82612ffe565b84526130aa6020830161300f565b60208501526130bb60408301612ffe565b60408501526130cc60608301612ffe565b60608501526130dd6080830161300f565b60808501526130ee60a08301613029565b60a08501526130ff60c08301612f4d565b60c085015260e082015160e085015261010061311c818401613038565b9085015261012061312e818401613048565b90850152610140613140818401613056565b90850152610160613152818401613056565b90850152610180613164818401613056565b908501526101a0613176818401613056565b908501526101c0928383015190811161048c576131939201611e5f565b9082015290565b61324d915f9160606101c06040516131b181610204565b85815285602082015285604082015285838201528560808201528560a08201528560c08201528560e08201528561010082015285610120820152856101408201528561016082015285610180820152856101a0820152015261321561270782613dbf565b9060405180958194829363c44a8e6d60e01b8452600484016040905f9294936001600160a01b03606083019616825260208201520152565b03915afa9081156126a3575f91613262575090565b61045691503d805f833e613276818361027a565b810190613061565b60405161328a81610226565b5f8152905f368137565b9061329e8261124f565b6132ab604051918261027a565b82815280926114c6601f199161124f565b805f917a184f03e93ff9f4daa797ed6e38ed64bf6a1f010000000000000000808210156133fd575b506d04ee2d6d415b85acef8100000000808310156133ee575b50662386f26fc10000808310156133df575b506305f5e100808310156133d0575b50612710808310156133c1575b5060648210156133b1575b600a809210156133a7575b60019081602161335360018701613294565b95860101905b613365575b5050505090565b5f19019083907f30313233343536373839616263646566000000000000000000000000000000008282061a8353049182156133a257919082613359565b61335e565b9160010191613341565b9190606460029104910191613336565b6004919392049101915f61332b565b6008919392049101915f61331e565b6010919392049101915f61330f565b6020919392049101915f6132fd565b60409350810491505f6132e4565b6040519061341882610242565b600c82527f5370656369616c20426f647900000000000000000000000000000000000000006020830152565b6040519061345182610242565b600c82527f5370656369616c204865616400000000000000000000000000000000000000006020830152565b6040519061348a82610242565b600c82527f5370656369616c204c65677300000000000000000000000000000000000000006020830152565b604051906134c382610242565b600c82527f5370656369616c205375697400000000000000000000000000000000000000006020830152565b604051906134fc82610242565b6004825263119a5cdd60e21b6020830152565b6040519061351c82610242565b600b82527f5375697420626f74746f6d0000000000000000000000000000000000000000006020830152565b6040519061355582610242565b600882527f5375697420746f700000000000000000000000000000000000000000000000006020830152565b6040519061358e82610242565b600482526314dd5a5d60e21b6020830152565b604051906135ae82610242565b60048252631219585960e21b6020830152565b604051906135ce82610242565b600882527f4865616420746f700000000000000000000000000000000000000000000000006020830152565b6040519061360782610242565b600582527f4d6f7574680000000000000000000000000000000000000000000000000000006020830152565b6040519061364082610242565b600782527f476c6173736573000000000000000000000000000000000000000000000000006020830152565b6040519061367982610242565b600882527f4e65636b6c6163650000000000000000000000000000000000000000000000006020830152565b604051906136b282610242565b60048252634c65677360e01b6020830152565b604051906136d282610242565b600882527f4261636b736964650000000000000000000000000000000000000000000000006020830152565b6040519061370b82610242565b600a82527f4261636b67726f756e64000000000000000000000000000000000000000000006020830152565b6040519061374482610242565b600a82527f42616e6e7920626f6479000000000000000000000000000000000000000000006020830152565b8061377e5750610456613737565b6001810361378f57506104566136fe565b600281036137a057506104566136c5565b600881036137b157506104566136a5565b600381036137c2575061045661366c565b600681036137d35750610456613633565b600781036137e457506104566135fa565b600c81036137f557506104566135c1565b6004810361380657506104566135a1565b600981036138175750610456613581565b600b81036138285750610456613548565b600a8103613839575061045661350f565b600d810361384a57506104566134ef565b600e810361385b57506104566134b6565b600f810361386c575061045661347d565b6010810361387d5750610456613444565b60111461388c576104566117ea565b61045661340b565b604051906138a182610242565b600882527f4f726967696e616c0000000000000000000000000000000000000000000000006020830152565b604051906138da82610242565b600682527f4f72616e676500000000000000000000000000000000000000000000000000006020830152565b6040519061391382610242565b600482526350696e6b60e01b6020830152565b6040519061393382610242565b600582527f416c69656e0000000000000000000000000000000000000000000000000000006020830152565b600181036139705750610456613926565b600281036139815750610456613906565b6003810361399257506104566138cd565b600481036139a35750610456613894565b5f52600c60205261045660405f2061035f565b90805f52602091600d83526139cd60405f2061035f565b8051613ada5750613a1f91816001600160a01b036139eb8694613dbf565b1690604051809581948293632f54648f60e21b845260048401602090939291936001600160a01b0360408201951681520152565b03915afa80156126a357613a8792613a4c604992610456945f91613abd575b50613a4761029c565b613e26565b60405194827f3c696d61676520687265663d220000000000000000000000000000000000000087948501528251928391602d860191016103ff565b81017f222077696474683d2234303022206865696768743d22343030222f3e00000000602d82015203602981018452018261027a565b613ad49150833d851161278d5761277e818361027a565b5f613a3e565b9250505090565b6009545f9291613af0826101b8565b91600190818116908115613b5a5750600114613b0b57505050565b909192935060095f527f6e1540171b6c0c960b71a7020d9f60077f6af931a8bbf590da0223dacf75c7af905f915b848310613b47575050500190565b8181602092548587015201920191613b39565b60ff191683525050811515909102019150565b603b610456613bfc610a056008613c836040516003613c7381613c6381613c536044602088017f7b66696c6c3a6e6f6e653b7d00000000000000000000000000000000000000008152600c8952613bc389610242565b6040519e8f9d8e7f3c7374796c653e2e6f7b66696c6c3a233830383038303b7d2e6231000000000060208201528b5192839101846103ff565b8d016217311960e91b603b820152895190613c1b82603e8301856103ff565b01622e623360e81b603e820152613c398a51809360418401906103ff565b01613c4c60418201620b988d60ea1b9052565b018761162e565b622e613160e81b8152018561162e565b6217309960e91b8152018361162e565b622e613360e81b8152019061162e565b7f3c2f7374796c653e000000000000000000000000000000000000000000000000815201613ae1565b906102da60bb60405180947f3c7376672077696474683d2234303022206865696768743d223430302220766960208301527f6577426f783d223020302034303020343030222066696c6c3d2277686974652260408301527f20786d6c6e733d22687474703a2f2f7777772e77332e6f72672f323030302f7360608301527f7667223e3c7374796c653e2e6f7b66696c6c3a233035303530353b7d2e777b6660808301527f696c6c3a236639663966393b7d3c2f7374796c653e000000000000000000000060a0830152613d8981518092602060b5860191016103ff565b81017f3c2f7376673e000000000000000000000000000000000000000000000000000060b582015203609b81018552018361027a565b60206001600160a01b039160046040518094819363507f146560e01b8352165afa9081156126a3575f91613df1575090565b90506020813d602011613e1e575b81613e0c6020938361027a565b8101031261048c57516104568161056c565b3d9150613dff565b9061045690613e54604051602092609160f51b84830152602282015260228152613e4f8161025e565b61528d565b926040519381613e6d86935180928680870191016103ff565b8201613e81825180938680850191016103ff565b0103808452018261027a565b906102da602160405184613eab8296518092602080860191016103ff565b8101600160fd1b602082015203600181018552018361027a565b60405190613ed282610242565b600a82527f2072656d61696e696e67000000000000000000000000000000000000000000006020830152565b906102da929493602192613f67604051978894602093613f268151809287808b0191016103ff565b8601613f3a825180938780850191016103ff565b01602f60f81b84820152613f5682518093868a850191016103ff565b0191835193849187850191016103ff565b0103600181018552018361027a565b906102da929493602d92613ff5604051978894602093613f9e8151809287808b0191016103ff565b86017f2028534f4c44204f55542920000000000000000000000000000000000000000085820152613fd88251809387602c850191016103ff565b01602f60f81b602c820152613f5682518093868a850191016103ff565b0103600d81018552018361027a565b6102da91613f67949360219260405196879360209261402b8151809286808a0191016103ff565b850161403f825180938680850191016103ff565b0191602f60f81b81840152835193849187850191016103ff565b906102da6022604051846140778296518092602080860191016103ff565b81016101d160f51b602082015203600281018552018361027a565b60216102da9193929360405194816140b48793518092602080870191016103ff565b82016140c982518093602080850191016103ff565b01600160fd1b602082015203600181018552018361027a565b60256102da9193929360405194816141048793518092602080870191016103ff565b82017f5550432023000000000000000000000000000000000000000000000000000000602082015261413f82518093602087850191016103ff565b0103600581018552018361027a565b906141bc61045692633b9aca00614177614172612929612107875163ffffffff1690565b613e8d565b9106614181613ec5565b81156142135750906141956141b7926132bc565b6141b16141ac612107606088015163ffffffff1690565b6132bc565b91614004565b614059565b906141d461291961291161010084015162ffffff1690565b80516141f6575b506141ac6121076141f0925163ffffffff1690565b906140e2565b61210761420a6141ac926141f09495614092565b939250506141db565b9050604084019163ffffffff61422d845163ffffffff1690565b1680614268575061424b6141ac6121076141b7955163ffffffff1690565b6142626141ac612107606089015163ffffffff1690565b91613f76565b6141b79350614276906132bc565b61428d6141ac612107606089015163ffffffff1690565b91613efe565b604051906142a08261025e565b604082527f6768696a6b6c6d6e6f707172737475767778797a303132333435363738392b2f6040837f4142434445464748494a4b4c4d4e4f505152535455565758595a61626364656660208201520152565b908160021b917f3fffffffffffffffffffffffffffffffffffffffffffffffffffffffffffffff8116036106ba57565b80511561440157614331614293565b61434d6143486143418451611419565b6003900490565b6142f2565b9161435f61435a84611427565b613294565b92835280815182019060208501935b8282106143af5750505060039051068060011461439e57600214614390575090565b603d60f81b5f199091015290565b50613d3d60f01b6001199091015290565b9091936004906003809401938451600190603f9082828260121c16880101518553828282600c1c16880101518386015382828260061c168801015160028601531685010151908201530193919061436e565b506104566117ea565b6001600160a01b03805f54168161441f6158be565b16036144285750565b6024906144336158be565b60405163118cdaa760e01b815291166004820152fd5b61445290615792565b93604096959693919351968796602088017f3c7374796c653e2e62317b66696c6c3a2300000000000000000000000000000090528051908160318a01916020019161449c926103ff565b8701603181017f3b7d2e62327b66696c6c3a230000000000000000000000000000000000000000905281519182603d830191602001916144db926103ff565b01603d81017f3b7d2e62337b66696c6c3a230000000000000000000000000000000000000000905281519182604983019160200191614519926103ff565b0160498101614547907f3b7d2e62347b66696c6c3a2300000000000000000000000000000000000000009052565b6055016145539161162e565b7f3b7d2e61317b66696c6c3a2300000000000000000000000000000000000000008152600c016145829161162e565b7f3b7d2e61327b66696c6c3a2300000000000000000000000000000000000000008152600c016145b19161162e565b7f3b7d2e61337b66696c6c3a2300000000000000000000000000000000000000008152600c016145e09161162e565b7f3b7d3c2f7374796c653e000000000000000000000000000000000000000000008152600a0161460f90613ae1565b03601f1981018252610456908261027a565b90604051918260209161463c815180928580860191016103ff565b6007545f91830161464c826101b8565b916001908181169081156146d55750600114614679575b5050506102da925003601f19810184528361027a565b94925060075f527fa66cc928b5edb82af9bd49922954155ab7b0942694bea4ce44661d9a8736c688945f905b8382106146bd5750506102da945001015f8080614663565b865482840186015295860195889550908401906146a5565b9150506102da95935060ff9291921916838301528015150201015f8080614663565b906040519182602091614712815180928580860191016103ff565b6008545f918301614722826101b8565b916001908181169081156146d5575060011461474e575050506102da925003601f19810184528361027a565b94925060085f527ff3f7a9fe364faab93b216da50a3214154f22a0a2b415b23a84c8169e8b636ee3945f905b8382106147925750506102da945001015f8080614663565b8654828401860152958601958895509084019061477a565b9060405191826020916147c5815180928580860191016103ff565b6005545f9183016147d5826101b8565b916001908181169081156146d55750600114614801575050506102da925003601f19810184528361027a565b94925060055f527f036b6384b5eca791c62761152d0c79bb0604c104a5fb6f4eb0703f3154bb3db0945f905b8382106148455750506102da945001015f8080614663565b8654828401860152958601958895509084019061482d565b906040519182602091614878815180928580860191016103ff565b6006545f918301614888826101b8565b916001908181169081156146d557506001146148b4575050506102da925003601f19810184528361027a565b94925060065f527ff652222313e28459528d920b65115c16c04f3efc82aaedc97be59f3f377c0d3f945f905b8382106148f85750506102da945001015f8080614663565b865482840186015295860195889550908401906148e0565b91909160608351915f925f935f945f9085935f5b61492d82611435565b811015614b0a5781811015614afe57614946818c6114f6565b5195614952878961319a565b9561497861210761496d6129116101008b015162ffffff1690565b985163ffffffff1690565b915b600388811492908315614acf57505050600197614997838b6139b6565b9b5b60048914614ac6575b6005898103614a725750506001965b6007898103614a30575050600b6001985b1180614a26575b614a0c575b15159081614a03575b506149eb575b506001019794939297614924565b6001919861287d6149fc928a6139b6565b97906149dd565b9050155f6149d7565b9a614a17919a6118c6565b98614a206117ea565b9a6149ce565b508b5115156149c9565b8991991180614a6a575b80614a62575b614a4d575b600b906149c2565b975099614a599061485d565b99600197614a45565b508615614a40565b508815614a3a565b899891981180614abe575b80614ab6575b156149b157965060019a8b84145f14614aa757614a9f906147aa565b9a5b966149b1565b614ab0906146f7565b9a614aa1565b508615614a83565b508715614a7d565b600196506149a2565b899d919a929d1180614af6575b1561499957985099614aed90614621565b99600198614999565b508915614adc565b5f95601295879161497a565b50505050505050925050565b9190614b37816129ad856001600160a01b03165f52600b60205260405f2090565b54614b428185612a0e565b818414801590614d44575b614b59575b5050505050565b8214614d2b575b508115614d04576040516331a9108f60e11b808252600482018490526001600160a01b0392918584169060208082602481865afa80156126a35786925f91614ce7575b5082614bad6158be565b911696168614159384614c6f575b50505050614c5d5763ffffffff614bd561297c858761319a565b1615614c4b5782614bfb826129ad876001600160a01b03165f52600b60205260405f2090565b55614c1b836129ad866001600160a01b03165f52600e60205260405f2090565b553003614c30575b50505b5f80808080614b52565b614c44913090614c3e6158be565b90615917565b5f80614c23565b60405163c3095f8760e01b8152600490fd5b60405163d03702f960e01b8152600490fd5b819293945090614ca691614c816158be565b95614c8c8a8c612a0e565b916040518095819482938352600483019190602083019252565b03915afa9081156126a35783925f92614cca575b505016911614155f808080614bbb565b614ce09250803d10612ff757612fe8818361027a565b5f80614cba565b614cfe9150823d8411612ff757612fe8818361027a565b5f614ba3565b614d2591506129ad5f936001600160a01b03165f52600b60205260405f2090565b55614c26565b614d3e90614d376158be565b3086615917565b5f614b60565b5082811415614b4d565b81519167ffffffffffffffff831161022157680100000000000000008311610221578154838355808410614dad575b506020809101915f5260205f20905f5b848110614d9b575050505050565b83518382015592810192600101614d8d565b614dc390835f528460205f209182019101611645565b5f614d7d565b909291925f935f915f92614dfa614df5836129ad886001600160a01b03165f52600a60205260405f2090565b611450565b955f945f945f908951615227575b90969299935f999899969296975b825189101561519c579a8a9b614e2f8a859d9c9d6114f6565b516040516331a9108f60e11b8152600481018290529d9097906001600160a01b03168e6024815a93602094fa9d8e156126a3575f9e61517b575b508d6001600160a01b0380614e7c6158be565b921691161415806150f0575b6150de57614eaa612911610100614ea08f8c9061319a565b015162ffffff1690565b9960028b1080156150d4575b6150c2578b151590816150b7575b506150a55760048a0361500857506001949095919293955b8981111580614fff575b15614f7a57508a949392918188614f0a93141580614f68575b614f4f575b5061150a565b94858c805182105f14614f4257610100614ea0614f2d614f3594612911946114f6565b51809961319a565b905b959192939490614edc565b505093505f935f90614f37565b614f6290614f5b6158be565b3089615917565b5f614f04565b5089614f748289612d4f565b14614eff565b93966001929a959d999199969396898d81614f958583612d4f565b03614fb2575b50505050930197939a949091999899969296614e16565b836129ad614fd1926001600160a01b03165f52600f60205260405f2090565b556001600160a01b0330911603614feb575b80898d614f9b565b614ff990308d614c3e6158be565b5f614fe3565b50801515614ee6565b939260098a036150215750600192959192939490614edc565b9260068a14801561509b575b8015615091575b8061508a575b1561505157604051639b8fdcd160e01b8152600490fd5b600b8a148015615080575b80615079575b15614f37576040516306f7588760e01b8152600490fd5b5083615062565b50600a8a1461505c565b508461503a565b50600c8a14615034565b5060078a1461502d565b604051633869abd960e21b8152600490fd5b90508a11155f614ec4565b60405163b0ee46ab60e01b8152600490fd5b5060118b11614eb6565b60405163032cac0360e01b8152600490fd5b508b6001600160a01b0360206151336151076158be565b936151128d82612d4f565b6040519485809481936331a9108f60e11b8352600483019190602083019252565b0392165afa9081156126a3576001600160a01b039182915f9161515c575b501691161415614e88565b615175915060203d602011612ff757612fe8818361027a565b5f615151565b615195919e5060203d602011612ff757612fe8818361027a565b9c5f614e69565b5050979550915091949250805b6151d8575050506102da92916129ad6151d3926001600160a01b03165f52600a60205260405f2090565b614d4e565b9081856151e86151f39487612d4f565b14615214575061150a565b815181101561520d5761520681836114f6565b51806151a9565b5f806151a9565b614f62906152206158be565b3087615917565b955050615233886114e4565b5194615248612911610100614ea0898c61319a565b90614e08565b604051906105e0820182811067ffffffffffffffff82111761022157604052602e82526105c0366020840137565b9081518110156114f1570160200190565b908151156153bf5761529d61524e565b915f6152a8846114e4565b5260019080515f915b8183106152d6575050506152cc6152d191610456939461597b565b6159bd565b615a02565b90919361531e6153186153126152ec888661527c565b517fff000000000000000000000000000000000000000000000000000000000000001690565b60f81c90565b60ff1690565b905f915b60ff9088828816851015615382576001929161535761535161531861534a8961535d966114f6565b5160ff1690565b60081b90565b90611443565b615379603a9283830616615371878d6114f6565b9060ff169052565b04920191615322565b509196925050805b615399575060010191906152b1565b9360ff6001603a926153b583858a06166153718584168d6114f6565b011694048061538a565b905061045661327e565b604051906153d682610242565b600682527f66666539303000000000000000000000000000000000000000000000000000006020830152565b6040519061540f82610242565b600682527f66666337303000000000000000000000000000000000000000000000000000006020830152565b6040519061544882610242565b600682527f66336136303300000000000000000000000000000000000000000000000000006020830152565b6040519061548182610242565b600682527f39363561316100000000000000000000000000000000000000000000000000006020830152565b604051906154ba82610242565b600682527f66663763303200000000000000000000000000000000000000000000000000006020830152565b604051906154f382610242565b600682527f66643336303000000000000000000000000000000000000000000000000000006020830152565b6040519061552c82610242565b600682527f63333265306400000000000000000000000000000000000000000000000000006020830152565b6040519061556582610242565b600682527f66666438633500000000000000000000000000000000000000000000000000006020830152565b6040519061559e82610242565b600682527f66663936613900000000000000000000000000000000000000000000000000006020830152565b604051906155d782610242565b600682527f66653538386200000000000000000000000000000000000000000000000000006020830152565b6040519061561082610242565b600682527f63393266343500000000000000000000000000000000000000000000000000006020830152565b6040519061564982610242565b600682527f36376437353700000000000000000000000000000000000000000000000000006020830152565b6040519061568282610242565b600682527f33306132323000000000000000000000000000000000000000000000000000006020830152565b604051906156bb82610242565b600682527f32313761313500000000000000000000000000000000000000000000000000006020830152565b604051906156f482610242565b600682527f30393439306600000000000000000000000000000000000000000000000000006020830152565b6040519061572d82610242565b600682527f65343833656600000000000000000000000000000000000000000000000000006020830152565b6040519061576682610242565b600682527f64633266656600000000000000000000000000000000000000000000000000006020830152565b600181036157d957506157a361563c565b906157ac615675565b906157b56156ae565b906157be6156e7565b906157c7615720565b906157d0615759565b90610456615759565b6002810361582057506157ea615558565b906157f3615591565b906157fc6155ca565b90615805615603565b9061580e615558565b90615817615591565b906104566155ca565b60038103615867575061583161543b565b9061583a6154ad565b906158436154e6565b9061584c61551f565b9061585561543b565b9061585e6154ad565b906104566154e6565b60041461588057604051639a7b332360e01b8152600490fd5b6158886153c9565b90615891615402565b9061589a61543b565b906158a3615474565b906158ac6153c9565b906158b5615402565b9061045661543b565b6001600160a01b037f00000000000000000000000000000000000000000000000000000000000000001633148061590c575b156159085760131936013681116106ba573560601c90565b3390565b5060143610156158f0565b909291926001600160a01b0380921690813b1561048c575f6064928195856040519889978896632142170760e11b885216600487015216602485015260448401525af180156126a3576159675750565b67ffffffffffffffff811161022157604052565b9060ff8091169061598b8261149e565b925f5b83811061599c575050505090565b80836159aa600193856114f6565b51166159b682886114f6565b520161598e565b9081516159c98161149e565b905f5b8181106159da575090925050565b60019060ff6159ef5f198389510301886114f6565b51166159fb82866114f6565b52016159cc565b8051615a0d8161124f565b916040615a1d604051948561027a565b828452615a298361124f565b60209190601f190136868401375f5b848110615a4757505050505090565b6001908251615a558161025e565b603a81527f31323334353637383941424344454647484a4b4c4d4e50515253545556575859858201527f5a6162636465666768696a6b6d6e6f707172737475767778797a000000000000848201527fff0000000000000000000000000000000000000000000000000000000000000090615add9060ff615ad5858a6114f6565b51169061527c565b51165f1a615aeb828961527c565b5301615a3856fea2646970667358221220dbe973aea5d1f03deef7c0b303185740ea702d57d66279c38dd6598a01b9532864736f6c63430008170033",
	"deployedBytecode": "0x60806040526004361015610011575f80fd5b5f3560e01c806257bfdd146101b357806305b2ae1b146101ae578063150b7a02146101a9578063187be308146101a457806318ab522d1461019f5780632150a1381461019a5780632580833d1461019557806331a290ac14610190578063572b6c051461018b57806359a81d91146101865780635e703e71146101815780636aff31dd1461017c578063715018a61461017757806379a2696e146101725780637da0a8771461016d578063875e4bea146101685780638da5cb5b14610163578063a0122c091461015e578063a22d0dd514610159578063b03a3eab14610154578063b1fa9e7b1461014f578063b3fa27831461014a578063c06e7bc714610145578063c122804614610140578063d756227e1461013b5763f2fde38b14610136575f80fd5b611371565b6112a1565b611207565b6110b9565b611014565b610fe9565b610f45565b610f00565b610e64565b610e3f565b610cd2565b610c8f565b610c5c565b610bf8565b610bce565b610ba2565b610afd565b610aa7565b61093f565b6107db565b610736565b6106bf565b610629565b6105ab565b610490565b610459565b90600182811c921680156101e6575b60208310146101d257565b634e487b7160e01b5f52602260045260245ffd5b91607f16916101c7565b634e487b7160e01b5f52604160045260245ffd5b6101e0810190811067ffffffffffffffff82111761022157604052565b6101f0565b6020810190811067ffffffffffffffff82111761022157604052565b6040810190811067ffffffffffffffff82111761022157604052565b6060810190811067ffffffffffffffff82111761022157604052565b90601f8019910116810190811067ffffffffffffffff82111761022157604052565b604051905f82600354916102af836101b8565b8083529260209060019081811690811561033b57506001146102dc575b50506102da9250038361027a565b565b91509260035f527fc2575a0e9e593c00f959f8c92f12db2869c3395a3b0502d05e2516446f71f85b935f925b82841061032357506102da9450505081016020015f806102cc565b85548885018301529485019487945092810192610308565b915050602092506102da94915060ff191682840152151560051b8201015f806102cc565b9060405191825f8254610371816101b8565b908184526020946001916001811690815f146103dd575060011461039f575b5050506102da9250038361027a565b5f90815285812095935091905b8183106103c55750506102da93508201015f8080610390565b855488840185015294850194879450918301916103ac565b925050506102da94925060ff191682840152151560051b8201015f8080610390565b5f5b8381106104105750505f910152565b8181015183820152602001610401565b90602091610439815180928185528580860191016103ff565b601f01601f1916010190565b906020610456928181520190610420565b90565b3461048c575f36600319011261048c5761048861047461029c565b604051918291602083526020830190610420565b0390f35b5f80fd5b3461048c575f36600319011261048c576040515f6008546104b0816101b8565b8084529060209060019081811690811561054257506001146104e9575b610488856104dd8187038261027a565b60405191829182610445565b60085f90815293507ff3f7a9fe364faab93b216da50a3214154f22a0a2b415b23a84c8169e8b636ee35b83851061052f575050505081016020016104dd826104886104cd565b8054868601840152938201938101610513565b869550610488969350602092506104dd94915060ff191682840152151560051b82010192936104cd565b6001600160a01b0381160361048c57565b9181601f8401121561048c5782359167ffffffffffffffff831161048c576020838186019501011161048c57565b3461048c57608036600319011261048c576004356105c88161056c565b6105d360243561056c565b60643567ffffffffffffffff811161048c576105f390369060040161057d565b50506001600160a01b033091160361061757604051630a85bd0160e11b8152602090f35b604051633b2c6aa160e21b8152600490fd5b3461048c57604036600319011261048c576004356106468161056c565b6001600160a01b036024359161065c8382612f6d565b16805f52600260205260405f20825f5260205260405f20549162093a804201928342116106ba5783106106a8576106a5915f52600260205260405f20905f5260205260405f2090565b55005b604051631057c89560e21b8152600490fd5b611405565b3461048c57604036600319011261048c576106e86004356106df8161056c565b60243590611518565b90604051918291604083019083526020906040602085015282518091526020606085019301915f5b82811061071f57505050500390f35b835185528695509381019392810192600101610710565b3461048c575f36600319011261048c576040515f600554610756816101b8565b80845290602090600190818116908115610542575060011461078257610488856104dd8187038261027a565b60055f90815293507f036b6384b5eca791c62761152d0c79bb0604c104a5fb6f4eb0703f3154bb3db05b8385106107c8575050505081016020016104dd826104886104cd565b80548686018401529382019381016107ac565b3461048c575f36600319011261048c576040515f6006546107fb816101b8565b80845290602090600190818116908115610542575060011461082757610488856104dd8187038261027a565b60065f90815293507ff652222313e28459528d920b65115c16c04f3efc82aaedc97be59f3f377c0d3f5b83851061086d575050505081016020016104dd826104886104cd565b8054868601840152938201938101610851565b604051906102da82610204565b67ffffffffffffffff81116102215760051b60200190565b92916108b08261088d565b916108be604051938461027a565b829481845260208094019160051b810192831161048c57905b8282106108e45750505050565b813581529083019083016108d7565b9080601f8301121561048c57816020610456933591016108a5565b9181601f8401121561048c5782359167ffffffffffffffff831161048c576020808501948460051b01011161048c57565b3461048c5760408060031936011261048c5760049067ffffffffffffffff823581811161048c5761097390369085016108f3565b9060243590811161048c5761098b903690850161090e565b9290915f5b8151811015610aa5576109a381836114f6565b516109b96109b28388886115e2565b369161126b565b6109d36109ce835f52600d60205260405f2090565b611624565b610a95576109e9825f52600460205260405f2090565b548015610a855785516020810190610a1381610a05848761162e565b03601f19810183528261027a565b51902003610a7557907faeb631726b45aa3f6b09da79f7af03a9784614901f61a967ed84d63c37b7edc7610a6c83610a5f60019695610a5a865f52600d60205260405f2090565b6116f3565b87519182913390836117c3565b0390a201610990565b845163d8e55daf60e01b81528890fd5b85516338d87d3960e01b81528990fd5b845163444244f560e01b81528890fd5b005b3461048c57602036600319011261048c576020600435610ac68161056c565b6001600160a01b039060405191807f000000000000000000000000c29d6995ab3b0df4650ad643adeac55e7acbb566169116148152f35b3461048c575f36600319011261048c576040515f600954610b1d816101b8565b808452906020906001908181169081156105425750600114610b4957610488856104dd8187038261027a565b60095f90815293507f6e1540171b6c0c960b71a7020d9f60077f6af931a8bbf590da0223dacf75c7af5b838510610b8f575050505081016020016104dd826104886104cd565b8054868601840152938201938101610b73565b3461048c57604036600319011261048c57610488610474600435610bc58161056c565b6024359061209c565b3461048c57602036600319011261048c576004355f526004602052602060405f2054604051908152f35b3461048c575f36600319011261048c57610c1061440a565b5f6001600160a01b03815473ffffffffffffffffffffffffffffffffffffffff1981168355167f8be0079c531659141344cd1fd0a4f28419497f9722a3daafe3b4186f6b6457e08280a3005b3461048c57604036600319011261048c576020610c87600435610c7e8161056c565b60243590612a0e565b604051908152f35b3461048c575f36600319011261048c5760206040516001600160a01b037f000000000000000000000000c29d6995ab3b0df4650ad643adeac55e7acbb566168152f35b3461048c5760208060031936011261048c5767ffffffffffffffff60043581811161048c57610d0590369060040161057d565b9091610d0f61440a565b811161022157610d2981610d246003546101b8565b61165b565b5f92601f8211600114610d9d5750610d7881807f512c3c91736f50c57a0548c1d01ab02f24c420f002b8b20e2bfe63df9693cd3f955f91610d92575b508160011b915f199060031b1c19161790565b6003555b610d8d604051928392339184612a69565b0390a1005b90508401355f610d65565b60035f52601f198216937fc2575a0e9e593c00f959f8c92f12db2869c3395a3b0502d05e2516446f71f85b915f905b868210610e27575050827f512c3c91736f50c57a0548c1d01ab02f24c420f002b8b20e2bfe63df9693cd3f9510610e0e575b5050600181811b01600355610d7c565b8301355f19600384901b60f8161c191690555f80610dfe565b80600184958294958901358155019401920190610dcc565b3461048c575f36600319011261048c5760206001600160a01b035f5416604051908152f35b3461048c57604036600319011261048c57610eda600435610e848161056c565b610488610e9e610e97602435809461319a565b809361414e565b91610ee8610ec563ffffffff610ebd62ffffff61010086015116613770565b93511661395f565b91604051958695606087526060870190610420565b908582036020870152610420565b908382036040850152610420565b8015150361048c57565b3461048c57608036600319011261048c57610488610474600435610f238161056c565b604435610f2f81610ef6565b60643591610f3c83610ef6565b60243590612bb6565b3461048c57604036600319011261048c5767ffffffffffffffff60043581811161048c57610f779036906004016108f3565b9060243590811161048c573660238201121561048c578060040135610f9b8161088d565b91610fa9604051938461027a565b8183526020916024602085019160051b8301019136831161048c57602401905b828210610fda57610aa58587612cb8565b81358152908301908301610fc9565b3461048c57604036600319011261048c576020610c8760043561100b8161056c565b60243590612d4f565b3461048c575f36600319011261048c576040515f600754611034816101b8565b80845290602090600190818116908115610542575060011461106057610488856104dd8187038261027a565b60075f90815293507fa66cc928b5edb82af9bd49922954155ab7b0942694bea4ce44661d9a8736c6885b8385106110a6575050505081016020016104dd826104886104cd565b805486860184015293820193810161108a565b3461048c57608036600319011261048c576004356110d68161056c565b6044359060243560643567ffffffffffffffff811161048c576110fd90369060040161090e565b906002600154146111f55760026001556111178385612f6d565b6001600160a01b039182851692835f526002602052604096875f20865f52602052875f205442106111e45761114a6158be565b97838151918083528201527f07ffffffffffffffffffffffffffffffffffffffffffffffffffffffffffffff841161048c57866111d5967f6a68946ba06488db8585d7c7637fa954b574035fe15720ea760125ef8601725883606086958a6111db9f996111ce9a8c60051b8093868601371660208301528101030190a48587614b16565b36916108a5565b91614dc9565b610aa560018055565b8751632d2f65a360e11b8152600490fd5b604051633ee5aeb560e01b8152600490fd5b3461048c57604036600319011261048c576001600160a01b0360043561122c8161056c565b165f52600260205260405f206024355f52602052602060405f2054604051908152f35b67ffffffffffffffff811161022157601f01601f191660200190565b9291926112778261124f565b91611285604051938461027a565b82948184528183011161048c578281602093845f960137010152565b3461048c57604036600319011261048c5767ffffffffffffffff60043581811161048c576112d39036906004016108f3565b60249060243583811161048c573660238201121561048c578060040135926112fa8461088d565b93611308604051958661027a565b8085526020956024602087019260051b8501019336851161048c5760248101925b85841061133a57610aa58888612dde565b833583811161048c5782013660438201121561048c5789916113668392369060448a820135910161126b565b815201930192611329565b3461048c57602036600319011261048c5760043561138e8161056c565b61139661440a565b6001600160a01b038091169081156113ed575f548273ffffffffffffffffffffffffffffffffffffffff198216175f55167f8be0079c531659141344cd1fd0a4f28419497f9722a3daafe3b4186f6b6457e05f80a3005b604051631e4fbdf760e01b81525f6004820152602490fd5b634e487b7160e01b5f52601160045260245ffd5b90600282018092116106ba57565b90602082018092116106ba57565b90600182018092116106ba57565b919082018092116106ba57565b90604051918281549182825260209260208301915f5260205f20935f905b828210611484575050506102da9250038361027a565b85548452600195860195889550938101939091019061146e565b906114a88261088d565b6114b5604051918261027a565b82815280926114c6601f199161088d565b0190602036910137565b634e487b7160e01b5f52603260045260245ffd5b8051156114f15760200190565b6114d0565b80518210156114f15760209160051b010190565b5f1981146106ba5760010190565b9190915f926001600160a01b0382165f52600a60205260405f20815f5260205261154460405f20611450565b9361154f855161149e565b915f915f5b875181101561159d578061156a6001928a6114f6565b5184611576828a612d4f565b14611583575b5001611554565b61159661158f8761150a565b96886114f6565b525f61157c565b5095509050929190926115c1826001600160a01b03165f52600b60205260405f2090565b815f526020526115d660405f20548093612a0e565b146115de5750565b9250565b91908110156114f15760051b81013590601e198136030182121561048c57019081359167ffffffffffffffff831161048c57602001823603811361048c579190565b61045690546101b8565b90611641602092828151948592016103ff565b0190565b818110611650575050565b5f8155600101611645565b90601f8211611668575050565b6102da9160035f527fc2575a0e9e593c00f959f8c92f12db2869c3395a3b0502d05e2516446f71f85b906020601f840160051c830193106116b1575b601f0160051c0190611645565b90915081906116a4565b9190601f81116116ca57505050565b6102da925f5260205f20906020601f840160051c830193106116b157601f0160051c0190611645565b919091825167ffffffffffffffff81116102215761171b8161171584546101b8565b846116bb565b602080601f831160011461175c5750819061174d9394955f92611751575b50508160011b915f199060031b1c19161790565b9055565b015190505f80611739565b90601f19831695611770855f5260205f2090565b925f905b8882106117ab57505083600195969710611793575b505050811b019055565b01515f1960f88460031b161c191690555f8080611789565b80600185968294968601518155019501930190611774565b906001600160a01b036117e3602092959495604085526040850190610420565b9416910152565b604051906117f782610226565b5f8252565b6040519061180982610242565b600f82527f2261747472696275746573223a205b00000000000000000000000000000000006020830152565b6040519061184282610242565b600e82527f226f7574666974496473223a205b0000000000000000000000000000000000006020830152565b9060405191826060515f5b8181106118ad57509060206102da936118a182948401918383015f81528151948592016103ff565b0103808552018361027a565b6020919250806080015182828801015201908491611879565b60206102da9193929360405194816118e787935180928680870191016103ff565b82016118a1825180938680850191016103ff565b5f198101919082116106ba57565b906102da6021604051846119278296518092602080860191016103ff565b8101600b60fa1b602082015203600181018552018361027a565b906102da60226040518461195f8296518092602080860191016103ff565b810161174b60f21b602082015203600281018552018361027a565b6040906102da92949394825195869160209361199e815180928780880191016103ff565b83017f7b2274726169745f74797065223a202200000000000000000000000000000000858201526119d882518093876030850191016103ff565b016c111610113b30b63ab2911d101160991b6030820152611a028251809386603d850191016103ff565b0162089f4b60ea1b603d820152039081018552018361027a565b906102da604a60405184611a3a8296518092602080860191016103ff565b81017f7b2274726169745f74797065223a20224261636b67726f756e64222c2022766160208201527f6c7565223a2022227d2c00000000000000000000000000000000000000000000604082015203602a81018552018361027a565b60316102da919392936040519481611ab88793518092602080870191016103ff565b82017f226261636b67726f756e644964223a20000000000000000000000000000000006020820152611af48251809360206030850191016103ff565b01600b60fa1b603082015203601181018552018361027a565b604a6102da919392936040519481611b2f8793518092602080870191016103ff565b82017f7b2274726169745f74797065223a20224261636b67726f756e64222c2022766160208201527f6c7565223a2022000000000000000000000000000000000000000000000000006040820152611b918251809360206047850191016103ff565b0162089f4b60ea1b604782015203602a81018552018361027a565b60376102da919392936040519481611bce8793518092602080870191016103ff565b82017f226368616e6765734c6f636b6564556e74696c223a20000000000000000000006020820152611c0a8251809360206036850191016103ff565b01600b60fa1b603682015203601781018552018361027a565b60526102da919392936040519481611c458793518092602080870191016103ff565b82017f7b2274726169745f74797065223a20224368616e676573206c6f636b6564207560208201527f6e74696c222c202276616c7565223a20000000000000000000000000000000006040820152611ca78251809360206050850191016103ff565b01611f4b60f21b605082015203603281018552018361027a565b906102da603660405180947f22776f726e427942616e6e79426f64794964223a2000000000000000000000006020830152611d068151809260206035860191016103ff565b8101600b60fa1b603582015203601681018552018361027a565b604b6102da919392936040519481611d428793518092602080870191016103ff565b82017f7b2274726169745f74797065223a2022576f726e2062792042616e6e79222c206020820152680113b30b63ab2911d160bd1b6040820152611d908251809360206049850191016103ff565b01611f4b60f21b604982015203602b81018552018361027a565b906102da603660405180947f2275736564427942616e6e79426f64794964223a2000000000000000000000006020830152611d068151809260206035860191016103ff565b604b6102da919392936040519481611e118793518092602080870191016103ff565b82017f7b2274726169745f74797065223a2022557365642062792042616e6e79222c206020820152680113b30b63ab2911d160bd1b6040820152611d908251809360206049850191016103ff565b81601f8201121561048c578051611e758161124f565b92611e83604051948561027a565b8184526020828401011161048c5761045691602080850191016103ff565b9060208282031261048c57815167ffffffffffffffff811161048c576104569201611e5f565b6040513d5f823e3d90fd5b9081602091031261048c575190565b9081606091031261048c57805191604060208301519201516104568161056c565b612030600392959460a46102da956040519885611f298b975180926020808b0191016103ff565b86017f7b2274726169745f74797065223a202250726f64756374206e616d65222c202260208201527f76616c7565223a202200000000000000000000000000000000000000000000006040820152611f8b8251809360206049850191016103ff565b017f227d2c207b2274726169745f74797065223a202243617465676f7279206e616d60498201527f65222c202276616c7565223a20220000000000000000000000000000000000006069820152611fec8251809360206077850191016103ff565b017f227d2c207b2274726169745f74797065223a2022546f74616c20737570706c7960778201526c111610113b30b63ab2911d101160991b6097820152019061162e565b62227d5d60e81b815203601c1981018552018361027a565b906102da603d60405180947f646174613a6170706c69636174696f6e2f6a736f6e3b6261736536342c000000602083015261208c81518092602086860191016103ff565b810103601d81018552018361027a565b6120a6828261319a565b9163ffffffff6120ba845163ffffffff1690565b1615612a03576120c86117ea565b506120d16117fc565b610100928385019462ffffff94856120ec885162ffffff1690565b16156128345750612116612110612107835163ffffffff1690565b63ffffffff1690565b836139b6565b9182516127f8575b60018661212e895162ffffff1690565b16036127ca576121626121418683612a0e565b9461215c612156612151886132bc565b611daa565b966132bc565b90611def565b955b8351156126a857509060606001600160a01b0394939260046040518097819363043c358d60e11b8352165afa9384156126a3575f905f9561266e575b5081516121b29063ffffffff1661395f565b9688516121c19062ffffff1690565b62ffffff166121cf90613770565b97606084019889516121e49063ffffffff1690565b63ffffffff166121f3906132bc565b916121fd93611f02565b94612208838861414e565b9783516122189063ffffffff1690565b63ffffffff166122279061395f565b9980516122369062ffffff1690565b62ffffff1661224490613770565b9861224e906132bc565b91855161225e9063ffffffff1690565b63ffffffff1661226d906132bc565b915161227d9062ffffff166132bc565b905161228e9063ffffffff166132bc565b9160408701516122a19063ffffffff1690565b63ffffffff166122b0906132bc565b9360208801516122cc906cffffffffffffffffffffffffff1690565b6cffffffffffffffffffffffffff166122e4906132bc565b956122ee906132bc565b966122f8906132bc565b610120989098015161230c9060ff166132bc565b9860405180916020820161231f9161162e565b03601f1981018252612331908261027a565b61233a90614322565b9b6040519e8f9e8f602001612373906009907f7b226e616d65223a22000000000000000000000000000000000000000000000081520190565b61237c9161162e565b7f222c202270726f647563744e616d65223a20220000000000000000000000000081526013016123ab9161162e565b7f222c202263617465676f72794e616d65223a202200000000000000000000000081526014016123da9161162e565b7f222c2022746f6b656e4964223a200000000000000000000000000000000000008152600e016124099161162e565b7f2c2022757063223a20000000000000000000000000000000000000000000000081526009016124389161162e565b7f2c202263617465676f7279223a200000000000000000000000000000000000008152600e016124679161162e565b7f2c2022737570706c79223a2000000000000000000000000000000000000000008152600c016124969161162e565b7f2c202272656d61696e696e67223a2000000000000000000000000000000000008152600f016124c59161162e565b7f2c20227072696365223a200000000000000000000000000000000000000000008152600b016124f49161162e565b7f2c2022646563696d616c73223a200000000000000000000000000000000000008152600e016125239161162e565b7f2c202263757272656e6379223a200000000000000000000000000000000000008152600e016125529161162e565b7f2c2022646973636f756e74223a200000000000000000000000000000000000008152600e016125819161162e565b61016160f51b81526002016125959161162e565b61259e9161162e565b7f2c20226465736372697074696f6e223a2241207069656365206f662042616e6e81527f792052657461696c2e222c2265787465726e616c5f75726c223a22687474707360208201527f3a2f2f72657461696c2e62616e6e792e6574682e7375636b73222c22696d616760408201527f65223a22646174613a696d6167652f7376672b786d6c3b6261736536342c00006060820152607e0161263f9161162e565b61227d60f01b815260020103601f198101825261265c908261027a565b61266590614322565b61045690612048565b905061269391945060603d60601161269c575b61268b818361027a565b810190611ee1565b5093905f6121a0565b503d612681565b611ec7565b9350945050506126be601192945162ffffff1690565b1611156127b657604051636c0360eb60e01b81525f816004816001600160a01b0386165afa9283156126a357612747936020925f91612794575b50925b61271361270782613dbf565b6001600160a01b031690565b604051630c8df17160e41b81526001600160a01b039092166004830152602482019290925293849190829081906044820190565b03915afa9081156126a357610456925f92612763575b50613e26565b61278691925060203d60201161278d575b61277e818361027a565b810190611ed2565b905f61275d565b503d612774565b6127b091503d805f833e6127a8818361027a565b810190611ea1565b5f6126f8565b6020612747926127c461029c565b926126fb565b6127f26127d78683612d4f565b946127ec6121566127e7886132bc565b611cc1565b90611d20565b95612164565b916128189060018761280d8a5162ffffff1690565b160361281e57613cac565b9161211e565b61282f9061282a613b6d565b6118c6565b613cac565b91909293966128438883612aa2565b9661284e8984611518565b979099612859611835565b9a5f9b5b8a518d10156128b2576128839061287d6128778f8e6114f6565b516132bc565b906118c6565b9b61288e8b516118fb565b811061289e575b6001019b61285d565b9b6128aa600191611909565b9c9050612895565b6128c7919395979a989b929496999c50611941565b995f9b5b88518d101561293c576129346001918c8f6129296121078f8f61291161290561291e936128fe61292e98612919956114f6565b519061319a565b9687015162ffffff1690565b62ffffff1690565b613770565b935163ffffffff1690565b61395f565b9161197a565b9c019b6128cb565b939894995094999196509499508515155f146129f2579061298661292961210761297c61297561298c9661296f8c6132bc565b90611a96565b998761319a565b5163ffffffff1690565b90611b0d565b955b6129ba866129ad846001600160a01b03165f52600260205260405f2090565b905f5260205260405f2090565b544281116129c9575b50612164565b94966129e56121566129eb93996129df896132bc565b90611bac565b90611c23565b955f6129c3565b94506129fd90611a1c565b9561298e565b5050506104566117ea565b6001600160a01b0316805f52600e60205260405f20825f5260205260405f2054918215918215612a47575b5050612a425790565b505f90565b9091505f52600b60205260405f20825f5260205260405f205414155f80612a39565b916060816001600160a01b039260209497969760408752816040880152838701375f828287010152601f80199101168401019416910152565b612aac828261319a565b9163ffffffff612ac0845163ffffffff1690565b1615612a035760609062ffffff612ade61010086015162ffffff1690565b16612b825792612b22612b2892612af86104569686611518565b939080151580612b7a575b612b44575b50612b1d61210761287d925163ffffffff1690565b614449565b92614910565b8051612b35575b50613cac565b612b3e916118c6565b5f612b2f565b61287d919250612107612b71612b6c612b6661210761297c612b1d968d61319a565b8a6139b6565b61186e565b93925050612b08565b506001612b03565b5050612b98612107612b9e935163ffffffff1690565b906139b6565b8051612bad57506104566117ea565b61045690613cac565b9092612bc2848361319a565b9363ffffffff612bd6865163ffffffff1690565b1615612cab5760609062ffffff612bf461010088015162ffffff1690565b16612c92579061045695612c0b612c309386611518565b948115159081612c8a575b50612c625750612b1d61210761287d925163ffffffff1690565b92612c3d575b5050613cac565b612c4691614910565b8051612c53575b80612c36565b612c5c916118c6565b5f612c4d565b61287d919250612107612b71612b6c612c8461210761297c612b1d968c61319a565b896139b6565b90505f612c16565b5050509050612b98612107612b9e935163ffffffff1690565b50505050506104566117ea565b91612cc161440a565b5f925b8051841015612d4957612cd784826114f6565b5193612ce381856114f6565b51855f5260049560208781526040805f2054612d3a57907fb10eb6fc7557a7109693cb8f3fac48d44328de56c0368ee4cac539b424d2cad991600196979899845f52825284815f205551338152a301929190612cc4565b51632165e0ab60e01b81528890fd5b50915050565b6001600160a01b0381165f52600f60205260405f20825f5260205260405f2054908115612dd757612d91906001600160a01b03165f52600a60205260405f2090565b815f52602052612da360405f20611450565b915f5b8351811015612dcf5781612dba82866114f6565b5114612dc857600101612da6565b5050905090565b505050505f90565b5050505f90565b91612de761440a565b5f925b8051841015612d4957612dfd84826114f6565b5193612e0981856114f6565b5194805f52602095600c87526040805f20825167ffffffffffffffff811161022157612e398161171584546101b8565b89601f8211600114612eb75750917f9dedd219289ed514faff576c477c66bd097aef59a236e3b8ebcf0d0070cb4e969391612e9184612ea09560019a9b9c9d5f91612eac57508160011b915f199060031b1c19161790565b90555b519182913390836117c3565b0390a201929190612dea565b90508501515f610d65565b99601f198216612eca845f5260205f2090565b9b5f905b828210612f3357505091600198999a9b7f9dedd219289ed514faff576c477c66bd097aef59a236e3b8ebcf0d0070cb4e9696949282612ea0979510612f1b575b5050881b88019055612e94565b8501515f1960f88460031b161c191690555f80612f0e565b80600181939f868b015181550194019d01909c929c612ece565b51906102da8261056c565b9081602091031261048c57516104568161056c565b6040516331a9108f60e11b815260048101929092526001600160a01b03906020908390602490829085165afa9182156126a3575f92612fcd575b5080612fb16158be565b16911603612fbb57565b6040516341eb334360e11b8152600490fd5b612ff091925060203d602011612ff7575b612fe8818361027a565b810190612f58565b905f612fa7565b503d612fde565b519063ffffffff8216820361048c57565b51906cffffffffffffffffffffffffff8216820361048c57565b519061ffff8216820361048c57565b519062ffffff8216820361048c57565b519060ff8216820361048c57565b51906102da82610ef6565b60208183031261048c57805167ffffffffffffffff9182821161048c57016101e08184031261048c57613092610880565b9261309c82612ffe565b84526130aa6020830161300f565b60208501526130bb60408301612ffe565b60408501526130cc60608301612ffe565b60608501526130dd6080830161300f565b60808501526130ee60a08301613029565b60a08501526130ff60c08301612f4d565b60c085015260e082015160e085015261010061311c818401613038565b9085015261012061312e818401613048565b90850152610140613140818401613056565b90850152610160613152818401613056565b90850152610180613164818401613056565b908501526101a0613176818401613056565b908501526101c0928383015190811161048c576131939201611e5f565b9082015290565b61324d915f9160606101c06040516131b181610204565b85815285602082015285604082015285838201528560808201528560a08201528560c08201528560e08201528561010082015285610120820152856101408201528561016082015285610180820152856101a0820152015261321561270782613dbf565b9060405180958194829363c44a8e6d60e01b8452600484016040905f9294936001600160a01b03606083019616825260208201520152565b03915afa9081156126a3575f91613262575090565b61045691503d805f833e613276818361027a565b810190613061565b60405161328a81610226565b5f8152905f368137565b9061329e8261124f565b6132ab604051918261027a565b82815280926114c6601f199161124f565b805f917a184f03e93ff9f4daa797ed6e38ed64bf6a1f010000000000000000808210156133fd575b506d04ee2d6d415b85acef8100000000808310156133ee575b50662386f26fc10000808310156133df575b506305f5e100808310156133d0575b50612710808310156133c1575b5060648210156133b1575b600a809210156133a7575b60019081602161335360018701613294565b95860101905b613365575b5050505090565b5f19019083907f30313233343536373839616263646566000000000000000000000000000000008282061a8353049182156133a257919082613359565b61335e565b9160010191613341565b9190606460029104910191613336565b6004919392049101915f61332b565b6008919392049101915f61331e565b6010919392049101915f61330f565b6020919392049101915f6132fd565b60409350810491505f6132e4565b6040519061341882610242565b600c82527f5370656369616c20426f647900000000000000000000000000000000000000006020830152565b6040519061345182610242565b600c82527f5370656369616c204865616400000000000000000000000000000000000000006020830152565b6040519061348a82610242565b600c82527f5370656369616c204c65677300000000000000000000000000000000000000006020830152565b604051906134c382610242565b600c82527f5370656369616c205375697400000000000000000000000000000000000000006020830152565b604051906134fc82610242565b6004825263119a5cdd60e21b6020830152565b6040519061351c82610242565b600b82527f5375697420626f74746f6d0000000000000000000000000000000000000000006020830152565b6040519061355582610242565b600882527f5375697420746f700000000000000000000000000000000000000000000000006020830152565b6040519061358e82610242565b600482526314dd5a5d60e21b6020830152565b604051906135ae82610242565b60048252631219585960e21b6020830152565b604051906135ce82610242565b600882527f4865616420746f700000000000000000000000000000000000000000000000006020830152565b6040519061360782610242565b600582527f4d6f7574680000000000000000000000000000000000000000000000000000006020830152565b6040519061364082610242565b600782527f476c6173736573000000000000000000000000000000000000000000000000006020830152565b6040519061367982610242565b600882527f4e65636b6c6163650000000000000000000000000000000000000000000000006020830152565b604051906136b282610242565b60048252634c65677360e01b6020830152565b604051906136d282610242565b600882527f4261636b736964650000000000000000000000000000000000000000000000006020830152565b6040519061370b82610242565b600a82527f4261636b67726f756e64000000000000000000000000000000000000000000006020830152565b6040519061374482610242565b600a82527f42616e6e7920626f6479000000000000000000000000000000000000000000006020830152565b8061377e5750610456613737565b6001810361378f57506104566136fe565b600281036137a057506104566136c5565b600881036137b157506104566136a5565b600381036137c2575061045661366c565b600681036137d35750610456613633565b600781036137e457506104566135fa565b600c81036137f557506104566135c1565b6004810361380657506104566135a1565b600981036138175750610456613581565b600b81036138285750610456613548565b600a8103613839575061045661350f565b600d810361384a57506104566134ef565b600e810361385b57506104566134b6565b600f810361386c575061045661347d565b6010810361387d5750610456613444565b60111461388c576104566117ea565b61045661340b565b604051906138a182610242565b600882527f4f726967696e616c0000000000000000000000000000000000000000000000006020830152565b604051906138da82610242565b600682527f4f72616e676500000000000000000000000000000000000000000000000000006020830152565b6040519061391382610242565b600482526350696e6b60e01b6020830152565b6040519061393382610242565b600582527f416c69656e0000000000000000000000000000000000000000000000000000006020830152565b600181036139705750610456613926565b600281036139815750610456613906565b6003810361399257506104566138cd565b600481036139a35750610456613894565b5f52600c60205261045660405f2061035f565b90805f52602091600d83526139cd60405f2061035f565b8051613ada5750613a1f91816001600160a01b036139eb8694613dbf565b1690604051809581948293632f54648f60e21b845260048401602090939291936001600160a01b0360408201951681520152565b03915afa80156126a357613a8792613a4c604992610456945f91613abd575b50613a4761029c565b613e26565b60405194827f3c696d61676520687265663d220000000000000000000000000000000000000087948501528251928391602d860191016103ff565b81017f222077696474683d2234303022206865696768743d22343030222f3e00000000602d82015203602981018452018261027a565b613ad49150833d851161278d5761277e818361027a565b5f613a3e565b9250505090565b6009545f9291613af0826101b8565b91600190818116908115613b5a5750600114613b0b57505050565b909192935060095f527f6e1540171b6c0c960b71a7020d9f60077f6af931a8bbf590da0223dacf75c7af905f915b848310613b47575050500190565b8181602092548587015201920191613b39565b60ff191683525050811515909102019150565b603b610456613bfc610a056008613c836040516003613c7381613c6381613c536044602088017f7b66696c6c3a6e6f6e653b7d00000000000000000000000000000000000000008152600c8952613bc389610242565b6040519e8f9d8e7f3c7374796c653e2e6f7b66696c6c3a233830383038303b7d2e6231000000000060208201528b5192839101846103ff565b8d016217311960e91b603b820152895190613c1b82603e8301856103ff565b01622e623360e81b603e820152613c398a51809360418401906103ff565b01613c4c60418201620b988d60ea1b9052565b018761162e565b622e613160e81b8152018561162e565b6217309960e91b8152018361162e565b622e613360e81b8152019061162e565b7f3c2f7374796c653e000000000000000000000000000000000000000000000000815201613ae1565b906102da60bb60405180947f3c7376672077696474683d2234303022206865696768743d223430302220766960208301527f6577426f783d223020302034303020343030222066696c6c3d2277686974652260408301527f20786d6c6e733d22687474703a2f2f7777772e77332e6f72672f323030302f7360608301527f7667223e3c7374796c653e2e6f7b66696c6c3a233035303530353b7d2e777b6660808301527f696c6c3a236639663966393b7d3c2f7374796c653e000000000000000000000060a0830152613d8981518092602060b5860191016103ff565b81017f3c2f7376673e000000000000000000000000000000000000000000000000000060b582015203609b81018552018361027a565b60206001600160a01b039160046040518094819363507f146560e01b8352165afa9081156126a3575f91613df1575090565b90506020813d602011613e1e575b81613e0c6020938361027a565b8101031261048c57516104568161056c565b3d9150613dff565b9061045690613e54604051602092609160f51b84830152602282015260228152613e4f8161025e565b61528d565b926040519381613e6d86935180928680870191016103ff565b8201613e81825180938680850191016103ff565b0103808452018261027a565b906102da602160405184613eab8296518092602080860191016103ff565b8101600160fd1b602082015203600181018552018361027a565b60405190613ed282610242565b600a82527f2072656d61696e696e67000000000000000000000000000000000000000000006020830152565b906102da929493602192613f67604051978894602093613f268151809287808b0191016103ff565b8601613f3a825180938780850191016103ff565b01602f60f81b84820152613f5682518093868a850191016103ff565b0191835193849187850191016103ff565b0103600181018552018361027a565b906102da929493602d92613ff5604051978894602093613f9e8151809287808b0191016103ff565b86017f2028534f4c44204f55542920000000000000000000000000000000000000000085820152613fd88251809387602c850191016103ff565b01602f60f81b602c820152613f5682518093868a850191016103ff565b0103600d81018552018361027a565b6102da91613f67949360219260405196879360209261402b8151809286808a0191016103ff565b850161403f825180938680850191016103ff565b0191602f60f81b81840152835193849187850191016103ff565b906102da6022604051846140778296518092602080860191016103ff565b81016101d160f51b602082015203600281018552018361027a565b60216102da9193929360405194816140b48793518092602080870191016103ff565b82016140c982518093602080850191016103ff565b01600160fd1b602082015203600181018552018361027a565b60256102da9193929360405194816141048793518092602080870191016103ff565b82017f5550432023000000000000000000000000000000000000000000000000000000602082015261413f82518093602087850191016103ff565b0103600581018552018361027a565b906141bc61045692633b9aca00614177614172612929612107875163ffffffff1690565b613e8d565b9106614181613ec5565b81156142135750906141956141b7926132bc565b6141b16141ac612107606088015163ffffffff1690565b6132bc565b91614004565b614059565b906141d461291961291161010084015162ffffff1690565b80516141f6575b506141ac6121076141f0925163ffffffff1690565b906140e2565b61210761420a6141ac926141f09495614092565b939250506141db565b9050604084019163ffffffff61422d845163ffffffff1690565b1680614268575061424b6141ac6121076141b7955163ffffffff1690565b6142626141ac612107606089015163ffffffff1690565b91613f76565b6141b79350614276906132bc565b61428d6141ac612107606089015163ffffffff1690565b91613efe565b604051906142a08261025e565b604082527f6768696a6b6c6d6e6f707172737475767778797a303132333435363738392b2f6040837f4142434445464748494a4b4c4d4e4f505152535455565758595a61626364656660208201520152565b908160021b917f3fffffffffffffffffffffffffffffffffffffffffffffffffffffffffffffff8116036106ba57565b80511561440157614331614293565b61434d6143486143418451611419565b6003900490565b6142f2565b9161435f61435a84611427565b613294565b92835280815182019060208501935b8282106143af5750505060039051068060011461439e57600214614390575090565b603d60f81b5f199091015290565b50613d3d60f01b6001199091015290565b9091936004906003809401938451600190603f9082828260121c16880101518553828282600c1c16880101518386015382828260061c168801015160028601531685010151908201530193919061436e565b506104566117ea565b6001600160a01b03805f54168161441f6158be565b16036144285750565b6024906144336158be565b60405163118cdaa760e01b815291166004820152fd5b61445290615792565b93604096959693919351968796602088017f3c7374796c653e2e62317b66696c6c3a2300000000000000000000000000000090528051908160318a01916020019161449c926103ff565b8701603181017f3b7d2e62327b66696c6c3a230000000000000000000000000000000000000000905281519182603d830191602001916144db926103ff565b01603d81017f3b7d2e62337b66696c6c3a230000000000000000000000000000000000000000905281519182604983019160200191614519926103ff565b0160498101614547907f3b7d2e62347b66696c6c3a2300000000000000000000000000000000000000009052565b6055016145539161162e565b7f3b7d2e61317b66696c6c3a2300000000000000000000000000000000000000008152600c016145829161162e565b7f3b7d2e61327b66696c6c3a2300000000000000000000000000000000000000008152600c016145b19161162e565b7f3b7d2e61337b66696c6c3a2300000000000000000000000000000000000000008152600c016145e09161162e565b7f3b7d3c2f7374796c653e000000000000000000000000000000000000000000008152600a0161460f90613ae1565b03601f1981018252610456908261027a565b90604051918260209161463c815180928580860191016103ff565b6007545f91830161464c826101b8565b916001908181169081156146d55750600114614679575b5050506102da925003601f19810184528361027a565b94925060075f527fa66cc928b5edb82af9bd49922954155ab7b0942694bea4ce44661d9a8736c688945f905b8382106146bd5750506102da945001015f8080614663565b865482840186015295860195889550908401906146a5565b9150506102da95935060ff9291921916838301528015150201015f8080614663565b906040519182602091614712815180928580860191016103ff565b6008545f918301614722826101b8565b916001908181169081156146d5575060011461474e575050506102da925003601f19810184528361027a565b94925060085f527ff3f7a9fe364faab93b216da50a3214154f22a0a2b415b23a84c8169e8b636ee3945f905b8382106147925750506102da945001015f8080614663565b8654828401860152958601958895509084019061477a565b9060405191826020916147c5815180928580860191016103ff565b6005545f9183016147d5826101b8565b916001908181169081156146d55750600114614801575050506102da925003601f19810184528361027a565b94925060055f527f036b6384b5eca791c62761152d0c79bb0604c104a5fb6f4eb0703f3154bb3db0945f905b8382106148455750506102da945001015f8080614663565b8654828401860152958601958895509084019061482d565b906040519182602091614878815180928580860191016103ff565b6006545f918301614888826101b8565b916001908181169081156146d557506001146148b4575050506102da925003601f19810184528361027a565b94925060065f527ff652222313e28459528d920b65115c16c04f3efc82aaedc97be59f3f377c0d3f945f905b8382106148f85750506102da945001015f8080614663565b865482840186015295860195889550908401906148e0565b91909160608351915f925f935f945f9085935f5b61492d82611435565b811015614b0a5781811015614afe57614946818c6114f6565b5195614952878961319a565b9561497861210761496d6129116101008b015162ffffff1690565b985163ffffffff1690565b915b600388811492908315614acf57505050600197614997838b6139b6565b9b5b60048914614ac6575b6005898103614a725750506001965b6007898103614a30575050600b6001985b1180614a26575b614a0c575b15159081614a03575b506149eb575b506001019794939297614924565b6001919861287d6149fc928a6139b6565b97906149dd565b9050155f6149d7565b9a614a17919a6118c6565b98614a206117ea565b9a6149ce565b508b5115156149c9565b8991991180614a6a575b80614a62575b614a4d575b600b906149c2565b975099614a599061485d565b99600197614a45565b508615614a40565b508815614a3a565b899891981180614abe575b80614ab6575b156149b157965060019a8b84145f14614aa757614a9f906147aa565b9a5b966149b1565b614ab0906146f7565b9a614aa1565b508615614a83565b508715614a7d565b600196506149a2565b899d919a929d1180614af6575b1561499957985099614aed90614621565b99600198614999565b508915614adc565b5f95601295879161497a565b50505050505050925050565b9190614b37816129ad856001600160a01b03165f52600b60205260405f2090565b54614b428185612a0e565b818414801590614d44575b614b59575b5050505050565b8214614d2b575b508115614d04576040516331a9108f60e11b808252600482018490526001600160a01b0392918584169060208082602481865afa80156126a35786925f91614ce7575b5082614bad6158be565b911696168614159384614c6f575b50505050614c5d5763ffffffff614bd561297c858761319a565b1615614c4b5782614bfb826129ad876001600160a01b03165f52600b60205260405f2090565b55614c1b836129ad866001600160a01b03165f52600e60205260405f2090565b553003614c30575b50505b5f80808080614b52565b614c44913090614c3e6158be565b90615917565b5f80614c23565b60405163c3095f8760e01b8152600490fd5b60405163d03702f960e01b8152600490fd5b819293945090614ca691614c816158be565b95614c8c8a8c612a0e565b916040518095819482938352600483019190602083019252565b03915afa9081156126a35783925f92614cca575b505016911614155f808080614bbb565b614ce09250803d10612ff757612fe8818361027a565b5f80614cba565b614cfe9150823d8411612ff757612fe8818361027a565b5f614ba3565b614d2591506129ad5f936001600160a01b03165f52600b60205260405f2090565b55614c26565b614d3e90614d376158be565b3086615917565b5f614b60565b5082811415614b4d565b81519167ffffffffffffffff831161022157680100000000000000008311610221578154838355808410614dad575b506020809101915f5260205f20905f5b848110614d9b575050505050565b83518382015592810192600101614d8d565b614dc390835f528460205f209182019101611645565b5f614d7d565b909291925f935f915f92614dfa614df5836129ad886001600160a01b03165f52600a60205260405f2090565b611450565b955f945f945f908951615227575b90969299935f999899969296975b825189101561519c579a8a9b614e2f8a859d9c9d6114f6565b516040516331a9108f60e11b8152600481018290529d9097906001600160a01b03168e6024815a93602094fa9d8e156126a3575f9e61517b575b508d6001600160a01b0380614e7c6158be565b921691161415806150f0575b6150de57614eaa612911610100614ea08f8c9061319a565b015162ffffff1690565b9960028b1080156150d4575b6150c2578b151590816150b7575b506150a55760048a0361500857506001949095919293955b8981111580614fff575b15614f7a57508a949392918188614f0a93141580614f68575b614f4f575b5061150a565b94858c805182105f14614f4257610100614ea0614f2d614f3594612911946114f6565b51809961319a565b905b959192939490614edc565b505093505f935f90614f37565b614f6290614f5b6158be565b3089615917565b5f614f04565b5089614f748289612d4f565b14614eff565b93966001929a959d999199969396898d81614f958583612d4f565b03614fb2575b50505050930197939a949091999899969296614e16565b836129ad614fd1926001600160a01b03165f52600f60205260405f2090565b556001600160a01b0330911603614feb575b80898d614f9b565b614ff990308d614c3e6158be565b5f614fe3565b50801515614ee6565b939260098a036150215750600192959192939490614edc565b9260068a14801561509b575b8015615091575b8061508a575b1561505157604051639b8fdcd160e01b8152600490fd5b600b8a148015615080575b80615079575b15614f37576040516306f7588760e01b8152600490fd5b5083615062565b50600a8a1461505c565b508461503a565b50600c8a14615034565b5060078a1461502d565b604051633869abd960e21b8152600490fd5b90508a11155f614ec4565b60405163b0ee46ab60e01b8152600490fd5b5060118b11614eb6565b60405163032cac0360e01b8152600490fd5b508b6001600160a01b0360206151336151076158be565b936151128d82612d4f565b6040519485809481936331a9108f60e11b8352600483019190602083019252565b0392165afa9081156126a3576001600160a01b039182915f9161515c575b501691161415614e88565b615175915060203d602011612ff757612fe8818361027a565b5f615151565b615195919e5060203d602011612ff757612fe8818361027a565b9c5f614e69565b5050979550915091949250805b6151d8575050506102da92916129ad6151d3926001600160a01b03165f52600a60205260405f2090565b614d4e565b9081856151e86151f39487612d4f565b14615214575061150a565b815181101561520d5761520681836114f6565b51806151a9565b5f806151a9565b614f62906152206158be565b3087615917565b955050615233886114e4565b5194615248612911610100614ea0898c61319a565b90614e08565b604051906105e0820182811067ffffffffffffffff82111761022157604052602e82526105c0366020840137565b9081518110156114f1570160200190565b908151156153bf5761529d61524e565b915f6152a8846114e4565b5260019080515f915b8183106152d6575050506152cc6152d191610456939461597b565b6159bd565b615a02565b90919361531e6153186153126152ec888661527c565b517fff000000000000000000000000000000000000000000000000000000000000001690565b60f81c90565b60ff1690565b905f915b60ff9088828816851015615382576001929161535761535161531861534a8961535d966114f6565b5160ff1690565b60081b90565b90611443565b615379603a9283830616615371878d6114f6565b9060ff169052565b04920191615322565b509196925050805b615399575060010191906152b1565b9360ff6001603a926153b583858a06166153718584168d6114f6565b011694048061538a565b905061045661327e565b604051906153d682610242565b600682527f66666539303000000000000000000000000000000000000000000000000000006020830152565b6040519061540f82610242565b600682527f66666337303000000000000000000000000000000000000000000000000000006020830152565b6040519061544882610242565b600682527f66336136303300000000000000000000000000000000000000000000000000006020830152565b6040519061548182610242565b600682527f39363561316100000000000000000000000000000000000000000000000000006020830152565b604051906154ba82610242565b600682527f66663763303200000000000000000000000000000000000000000000000000006020830152565b604051906154f382610242565b600682527f66643336303000000000000000000000000000000000000000000000000000006020830152565b6040519061552c82610242565b600682527f63333265306400000000000000000000000000000000000000000000000000006020830152565b6040519061556582610242565b600682527f66666438633500000000000000000000000000000000000000000000000000006020830152565b6040519061559e82610242565b600682527f66663936613900000000000000000000000000000000000000000000000000006020830152565b604051906155d782610242565b600682527f66653538386200000000000000000000000000000000000000000000000000006020830152565b6040519061561082610242565b600682527f63393266343500000000000000000000000000000000000000000000000000006020830152565b6040519061564982610242565b600682527f36376437353700000000000000000000000000000000000000000000000000006020830152565b6040519061568282610242565b600682527f33306132323000000000000000000000000000000000000000000000000000006020830152565b604051906156bb82610242565b600682527f32313761313500000000000000000000000000000000000000000000000000006020830152565b604051906156f482610242565b600682527f30393439306600000000000000000000000000000000000000000000000000006020830152565b6040519061572d82610242565b600682527f65343833656600000000000000000000000000000000000000000000000000006020830152565b6040519061576682610242565b600682527f64633266656600000000000000000000000000000000000000000000000000006020830152565b600181036157d957506157a361563c565b906157ac615675565b906157b56156ae565b906157be6156e7565b906157c7615720565b906157d0615759565b90610456615759565b6002810361582057506157ea615558565b906157f3615591565b906157fc6155ca565b90615805615603565b9061580e615558565b90615817615591565b906104566155ca565b60038103615867575061583161543b565b9061583a6154ad565b906158436154e6565b9061584c61551f565b9061585561543b565b9061585e6154ad565b906104566154e6565b60041461588057604051639a7b332360e01b8152600490fd5b6158886153c9565b90615891615402565b9061589a61543b565b906158a3615474565b906158ac6153c9565b906158b5615402565b9061045661543b565b6001600160a01b037f000000000000000000000000c29d6995ab3b0df4650ad643adeac55e7acbb5661633148061590c575b156159085760131936013681116106ba573560601c90565b3390565b5060143610156158f0565b909291926001600160a01b0380921690813b1561048c575f6064928195856040519889978896632142170760e11b885216600487015216602485015260448401525af180156126a3576159675750565b67ffffffffffffffff811161022157604052565b9060ff8091169061598b8261149e565b925f5b83811061599c575050505090565b80836159aa600193856114f6565b51166159b682886114f6565b520161598e565b9081516159c98161149e565b905f5b8181106159da575090925050565b60019060ff6159ef5f198389510301886114f6565b51166159fb82866114f6565b52016159cc565b8051615a0d8161124f565b916040615a1d604051948561027a565b828452615a298361124f565b60209190601f190136868401375f5b848110615a4757505050505090565b6001908251615a558161025e565b603a81527f31323334353637383941424344454647484a4b4c4d4e50515253545556575859858201527f5a6162636465666768696a6b6d6e6f707172737475767778797a000000000000848201527fff0000000000000000000000000000000000000000000000000000000000000090615add9060ff615ad5858a6114f6565b51169061527c565b51165f1a615aeb828961527c565b5301615a3856fea2646970667358221220dbe973aea5d1f03deef7c0b303185740ea702d57d66279c38dd6598a01b9532864736f6c63430008170033",
	"gitCommit": "99c88f693fe0add873bcb509692afa01fddfa6ca",
	"history": []
}